{
  "_format": "hh-sol-artifact-1",
  "contractName": "CapTableRegistry",
  "sourceName": "contracts/capTable/CapTableRegistry.sol",
  "abi": [
    {
      "inputs": [
        {
          "internalType": "address[]",
          "name": "controllers",
          "type": "address[]"
        }
      ],
      "stateMutability": "nonpayable",
      "type": "constructor"
    },
    {
      "anonymous": false,
      "inputs": [
        {
          "indexed": true,
          "internalType": "address",
          "name": "capTableAddress",
          "type": "address"
        }
      ],
      "name": "capTableApproved",
      "type": "event"
    },
    {
      "anonymous": false,
      "inputs": [
        {
          "indexed": true,
          "internalType": "address",
          "name": "capTableAddress",
          "type": "address"
        },
        {
          "indexed": false,
          "internalType": "bytes32",
          "name": "reason",
          "type": "bytes32"
        }
      ],
      "name": "capTableDeclined",
      "type": "event"
    },
    {
      "anonymous": false,
      "inputs": [
        {
          "indexed": true,
          "internalType": "address",
          "name": "capTableAddress",
          "type": "address"
        },
        {
          "indexed": true,
          "internalType": "bytes32",
          "name": "uuid",
          "type": "bytes32"
        }
      ],
      "name": "capTableQued",
      "type": "event"
    },
    {
      "anonymous": false,
      "inputs": [
        {
          "indexed": true,
          "internalType": "address",
          "name": "capTableAddress",
          "type": "address"
        }
      ],
      "name": "capTableRemoved",
      "type": "event"
    },
    {
      "inputs": [
        {
          "internalType": "address",
          "name": "adr",
          "type": "address"
        }
      ],
      "name": "approve",
      "outputs": [],
      "stateMutability": "nonpayable",
      "type": "function"
    },
    {
      "inputs": [],
      "name": "controllers",
      "outputs": [
        {
          "internalType": "address[]",
          "name": "",
          "type": "address[]"
        }
      ],
      "stateMutability": "view",
      "type": "function"
    },
    {
      "inputs": [
        {
          "internalType": "address",
          "name": "adr",
          "type": "address"
        },
        {
          "internalType": "bytes32",
          "name": "reason",
          "type": "bytes32"
        }
      ],
      "name": "decline",
      "outputs": [],
      "stateMutability": "nonpayable",
      "type": "function"
    },
    {
      "inputs": [],
      "name": "getActiveCount",
      "outputs": [
        {
          "internalType": "uint256",
          "name": "activeCapTables",
          "type": "uint256"
        }
      ],
      "stateMutability": "view",
      "type": "function"
    },
    {
      "inputs": [
        {
          "internalType": "bytes32",
          "name": "uuid",
          "type": "bytes32"
        }
      ],
      "name": "getAddress",
      "outputs": [
        {
          "internalType": "address",
          "name": "capTableAddress",
          "type": "address"
        }
      ],
      "stateMutability": "view",
      "type": "function"
    },
    {
      "inputs": [
        {
          "internalType": "bytes32",
          "name": "uuid",
          "type": "bytes32"
        }
      ],
      "name": "getLastQuedAddress",
      "outputs": [
        {
          "internalType": "address",
          "name": "capTableAddress",
          "type": "address"
        }
      ],
      "stateMutability": "view",
      "type": "function"
    },
    {
      "inputs": [],
      "name": "getList",
      "outputs": [
        {
          "internalType": "address[]",
          "name": "capTableList",
          "type": "address[]"
        }
      ],
      "stateMutability": "view",
      "type": "function"
    },
    {
      "inputs": [],
      "name": "getQuedCount",
      "outputs": [
        {
          "internalType": "uint256",
          "name": "quedCapTables",
          "type": "uint256"
        }
      ],
      "stateMutability": "view",
      "type": "function"
    },
    {
      "inputs": [
        {
          "internalType": "address",
          "name": "adr",
          "type": "address"
        }
      ],
      "name": "getStatus",
      "outputs": [
        {
          "internalType": "uint256",
          "name": "status",
          "type": "uint256"
        }
      ],
      "stateMutability": "view",
      "type": "function"
    },
    {
      "inputs": [
        {
          "internalType": "address",
          "name": "adr",
          "type": "address"
        }
      ],
      "name": "getUuid",
      "outputs": [
        {
          "internalType": "bytes32",
          "name": "uuid",
          "type": "bytes32"
        }
      ],
      "stateMutability": "view",
      "type": "function"
    },
    {
      "inputs": [
        {
          "internalType": "address",
          "name": "adr",
          "type": "address"
        }
      ],
      "name": "isController",
      "outputs": [
        {
          "internalType": "bool",
          "name": "",
          "type": "bool"
        }
      ],
      "stateMutability": "view",
      "type": "function"
    },
    {
      "inputs": [
        {
          "internalType": "address",
          "name": "adr",
          "type": "address"
        },
        {
          "internalType": "bytes32",
          "name": "uuid",
          "type": "bytes32"
        }
      ],
      "name": "que",
      "outputs": [],
      "stateMutability": "nonpayable",
      "type": "function"
    },
    {
      "inputs": [
        {
          "internalType": "address",
          "name": "adr",
          "type": "address"
        }
      ],
      "name": "remove",
      "outputs": [],
      "stateMutability": "nonpayable",
      "type": "function"
    },
    {
      "inputs": [
        {
          "internalType": "address[]",
          "name": "operators",
          "type": "address[]"
        }
      ],
      "name": "setControllers",
      "outputs": [],
      "stateMutability": "nonpayable",
      "type": "function"
    }
  ],
  "bytecode": "0x60806040523480156200001157600080fd5b5060405162000eac38038062000eac833981810160405260208110156200003757600080fd5b81019080805160405193929190846401000000008211156200005857600080fd5b9083019060208201858111156200006e57600080fd5b82518660208202830111640100000000821117156200008c57600080fd5b82525081516020918201928201910280838360005b83811015620000bb578181015183820152602001620000a1565b5050505090500160405250505080620000da81620000e260201b60201c565b505062000236565b60005b60005481101562000140576000600160008084815481106200010357fe5b6000918252602080832091909101546001600160a01b031683528201929092526040019020805460ff1916911515919091179055600101620000e5565b5060005b81518110156200019b5760018060008484815181106200016057fe5b6020908102919091018101516001600160a01b03168252810191909152604001600020805460ff191691151591909117905560010162000144565b508051620001b1906000906020840190620001b5565b5050565b8280548282559060005260206000209081019282156200020d579160200282015b828111156200020d57825182546001600160a01b0319166001600160a01b03909116178255602090920191600190910190620001d6565b506200021b9291506200021f565b5090565b5b808211156200021b576000815560010162000220565b610c6680620002466000396000f3fe608060405234801561001057600080fd5b50600436106100ba5760003560e01c806304ecf1dd146100bf57806316077956146100f85780631afeec641461012657806321f8a7211461015257806329092d0e1461016f57806330ccebb51461019557806363338b17146101cd5780637cc0c3a7146101d5578063942b765a1461022d578063b429afeb14610235578063bf92bed11461026f578063daea85c514610295578063ea307545146102bb578063ea74838a146102c3575b600080fd5b6100dc600480360360208110156100d557600080fd5b5035610331565b604080516001600160a01b039092168252519081900360200190f35b6101246004803603604081101561010e57600080fd5b506001600160a01b03813516906020013561034c565b005b6101246004803603604081101561013c57600080fd5b506001600160a01b03813516906020013561035a565b6100dc6004803603602081101561016857600080fd5b5035610364565b6101246004803603602081101561018557600080fd5b50356001600160a01b031661037f565b6101bb600480360360208110156101ab57600080fd5b50356001600160a01b031661038b565b60408051918252519081900360200190f35b6101bb6103a6565b6101dd6103ac565b60408051602080825283518183015283519192839290830191858101910280838360005b83811015610219578181015183820152602001610201565b505050509050019250505060405180910390f35b6101dd61040e565b61025b6004803603602081101561024b57600080fd5b50356001600160a01b031661046e565b604080519115158252519081900360200190f35b6101bb6004803603602081101561028557600080fd5b50356001600160a01b031661048c565b610124600480360360208110156102ab57600080fd5b50356001600160a01b03166104a7565b6101bb6104b0565b610124600480360360208110156102d957600080fd5b810190602081018135600160201b8111156102f357600080fd5b82018360208201111561030557600080fd5b803590602001918460208302840111600160201b8311171561032657600080fd5b5090925090506104b6565b6000908152600660205260409020546001600160a01b031690565b6103568282610548565b5050565b610356828261066a565b6000908152600560205260409020546001600160a01b031690565b610388816107df565b50565b6001600160a01b031660009081526003602052604090205490565b60075490565b6060600080548060200260200160405190810160405280929190818152602001828054801561040457602002820191906000526020600020905b81546001600160a01b031681526001909101906020018083116103e6575b5050505050905090565b60606002805480602002602001604051908101604052809291908181526020018280548015610404576020028201919060005260206000209081546001600160a01b031681526001909101906020018083116103e6575050505050905090565b6001600160a01b031660009081526001602052604090205460ff1690565b6001600160a01b031660009081526004602052604090205490565b610388816108f3565b60085490565b6104bf3361046e565b61050c576040805162461bcd60e51b815260206004820152601960248201527836b9b39739b2b73232b9103737ba1031b7b73a3937b63632b960391b604482015290519081900360640190fd5b610356828280806020026020016040519081016040528093929190818152602001838360200280828437600092019190915250610a2492505050565b6001600160a01b03821660009081526003602052604090205460011461059f5760405162461bcd60e51b8152600401808060200182810382526023815260200180610b996023913960400191505060405180910390fd5b6105a83361046e565b6105e7576040805162461bcd60e51b815260206004820152601c6024820152600080516020610b79833981519152604482015290519081900360640190fd5b6001600160a01b038216600081815260036020818152604080842092909255600880546000190190556004815281832054808452600682529282902080546001600160a01b0319169055815185815291519293927f871951f6860e8a0ee93166db037de507a4e83ab8a01c1d8a9afad96898f58a959281900390910190a2505050565b6001600160a01b038216600090815260036020526040902054600114156106c25760405162461bcd60e51b815260040180806020018281038252602c815260200180610c05602c913960400191505060405180910390fd5b6001600160a01b0382166000908152600360205260409020546002141561072d576040805162461bcd60e51b815260206004820152601a60248201527943616e6e6f742071756520616374697665206361705461626c6560301b604482015290519081900360640190fd5b6002805460018181019092557f405787fa12a823e0f2b7631cc41b3ba8828b3321ca811111fa75cd3aa3bb5ace0180546001600160a01b0385166001600160a01b03199182168117909255600082815260036020908152604080832086905560048252808320879055868352600690915280822080549093168417909255600880549094019093555183927f311b769747f528dd8f712c2a0e7e08bff5e50e4b74e5983e24d65aedd2579bb991a35050565b6001600160a01b0381166000908152600360205260409020546002146108365760405162461bcd60e51b8152600401808060200182810382526026815260200180610bdf6026913960400191505060405180910390fd5b61083f3361046e565b61087e576040805162461bcd60e51b815260206004820152601c6024820152600080516020610b79833981519152604482015290519081900360640190fd5b6001600160a01b0381166000818152600360209081526040808320600490819055825280832054808452600590925280832080546001600160a01b031916905560078054600019019055519092917f59f92f7caa16e166e81629c044a7dc429c7ec26acf8a7bae64322c0b91ce09b991a25050565b6001600160a01b03811660009081526003602052604090205460011461094a5760405162461bcd60e51b8152600401808060200182810382526023815260200180610bbc6023913960400191505060405180910390fd5b6109533361046e565b610992576040805162461bcd60e51b815260206004820152601c6024820152600080516020610b79833981519152604482015290519081900360640190fd5b6001600160a01b03811660008181526003602090815260408083206002905560048252808320548084526005835281842080546001600160a01b031990811687179091556006909352818420805490931690925560088054600019019055600780546001019055519092917fd31d7a51ed1f0d96b385ba380d4ed4f90bd2f19dbda21b60e1c16244cc57707691a25050565b60005b600054811015610a7f57600060016000808481548110610a4357fe5b6000918252602080832091909101546001600160a01b031683528201929092526040019020805460ff1916911515919091179055600101610a27565b5060005b8151811015610ad7576001806000848481518110610a9d57fe5b6020908102919091018101516001600160a01b03168252810191909152604001600020805460ff1916911515919091179055600101610a83565b50805160008054828255818052610356927f290decd9548b62a8d60345a988386fc84ba6bc95484008f6362f93160ef3e56391820191602086018215610b53579160200282015b82811115610b5357825182546001600160a01b0319166001600160a01b03909116178255602090920191600190910190610b1e565b50610b5f929150610b63565b5090565b5b80821115610b5f5760008155600101610b6456fe6d73672e73656e646572206973206e6f7420636f6e74726f6c6c6572000000004f6e6c792071756564206361705461626c65732063616e206265206465636c696e65644f6e6c792071756564206361705461626c65732063616e20626520617070726f7665644f6e6c7920617070726f766564206361705461626c65732063616e2062652072656d6f76656451756564206361705461626c6573206d757374206265206465636c696e6564206265666f7265207265517565a2646970667358221220e3741b6ebd26a6f49347f065f153a625e10531ca8bb7f24a4ad78607bd37a5da64736f6c63430007030033",
  "linkReferences": {},
  "deployedLinkReferences": {}
}