{
  "_format": "hh-sol-artifact-1",
  "contractName": "CapTableRegistry",
  "sourceName": "contracts/capTable/CapTableRegistry.sol",
  "abi": [
    {
      "inputs": [
        {
          "internalType": "address[]",
          "name": "controllers",
          "type": "address[]"
        }
      ],
      "stateMutability": "nonpayable",
      "type": "constructor"
    },
    {
      "anonymous": false,
      "inputs": [
        {
          "indexed": true,
          "internalType": "address",
          "name": "capTableAddress",
          "type": "address"
        }
      ],
      "name": "capTableApproved",
      "type": "event"
    },
    {
      "anonymous": false,
      "inputs": [
        {
          "indexed": true,
          "internalType": "address",
          "name": "capTableAddress",
          "type": "address"
        },
        {
          "indexed": false,
          "internalType": "bytes32",
          "name": "reason",
          "type": "bytes32"
        }
      ],
      "name": "capTableDeclined",
      "type": "event"
    },
    {
      "anonymous": false,
      "inputs": [
        {
          "indexed": true,
          "internalType": "address",
          "name": "from",
          "type": "address"
        },
        {
          "indexed": true,
          "internalType": "address",
          "name": "to",
          "type": "address"
        },
        {
          "indexed": true,
          "internalType": "bytes32",
          "name": "id",
          "type": "bytes32"
        }
      ],
      "name": "capTableMigrate",
      "type": "event"
    },
    {
      "anonymous": false,
      "inputs": [
        {
          "indexed": true,
          "internalType": "address",
          "name": "capTableAddress",
          "type": "address"
        },
        {
          "indexed": true,
          "internalType": "bytes32",
          "name": "id",
          "type": "bytes32"
        }
      ],
      "name": "capTableQued",
      "type": "event"
    },
    {
      "anonymous": false,
      "inputs": [
        {
          "indexed": true,
          "internalType": "address",
          "name": "capTableAddress",
          "type": "address"
        }
      ],
      "name": "capTableRemoved",
      "type": "event"
    },
    {
      "inputs": [
        {
          "internalType": "address",
          "name": "adr",
          "type": "address"
        }
      ],
      "name": "approve",
      "outputs": [],
      "stateMutability": "nonpayable",
      "type": "function"
    },
    {
      "inputs": [],
      "name": "controllers",
      "outputs": [
        {
          "internalType": "address[]",
          "name": "",
          "type": "address[]"
        }
      ],
      "stateMutability": "view",
      "type": "function"
    },
    {
      "inputs": [
        {
          "internalType": "address",
          "name": "adr",
          "type": "address"
        },
        {
          "internalType": "bytes32",
          "name": "reason",
          "type": "bytes32"
        }
      ],
      "name": "decline",
      "outputs": [],
      "stateMutability": "nonpayable",
      "type": "function"
    },
    {
      "inputs": [],
      "name": "getActiveCount",
      "outputs": [
        {
          "internalType": "uint256",
          "name": "activeCapTables",
          "type": "uint256"
        }
      ],
      "stateMutability": "view",
      "type": "function"
    },
    {
      "inputs": [
        {
          "internalType": "bytes32",
          "name": "id",
          "type": "bytes32"
        }
      ],
      "name": "getAddress",
      "outputs": [
        {
          "internalType": "address",
          "name": "capTableAddress",
          "type": "address"
        }
      ],
      "stateMutability": "view",
      "type": "function"
    },
    {
      "inputs": [
        {
          "internalType": "bytes32",
          "name": "id",
          "type": "bytes32"
        }
      ],
      "name": "getLastQuedAddress",
      "outputs": [
        {
          "internalType": "address",
          "name": "capTableAddress",
          "type": "address"
        }
      ],
      "stateMutability": "view",
      "type": "function"
    },
    {
      "inputs": [],
      "name": "getList",
      "outputs": [
        {
          "internalType": "address[]",
          "name": "capTableList",
          "type": "address[]"
        }
      ],
      "stateMutability": "view",
      "type": "function"
    },
    {
      "inputs": [
        {
          "internalType": "bytes32",
          "name": "id",
          "type": "bytes32"
        }
      ],
      "name": "getMigrationAddress",
      "outputs": [
        {
          "internalType": "address",
          "name": "",
          "type": "address"
        }
      ],
      "stateMutability": "view",
      "type": "function"
    },
    {
      "inputs": [],
      "name": "getQuedCount",
      "outputs": [
        {
          "internalType": "uint256",
          "name": "quedCapTables",
          "type": "uint256"
        }
      ],
      "stateMutability": "view",
      "type": "function"
    },
    {
      "inputs": [
        {
          "internalType": "address",
          "name": "adr",
          "type": "address"
        }
      ],
      "name": "getStatus",
      "outputs": [
        {
          "internalType": "uint256",
          "name": "status",
          "type": "uint256"
        }
      ],
      "stateMutability": "view",
      "type": "function"
    },
    {
      "inputs": [
        {
          "internalType": "address",
          "name": "adr",
          "type": "address"
        }
      ],
      "name": "getid",
      "outputs": [
        {
          "internalType": "bytes32",
          "name": "id",
          "type": "bytes32"
        }
      ],
      "stateMutability": "view",
      "type": "function"
    },
    {
      "inputs": [
        {
          "internalType": "address",
          "name": "adr",
          "type": "address"
        }
      ],
      "name": "isController",
      "outputs": [
        {
          "internalType": "bool",
          "name": "",
          "type": "bool"
        }
      ],
      "stateMutability": "view",
      "type": "function"
    },
    {
      "inputs": [
        {
          "internalType": "bytes32",
          "name": "id",
          "type": "bytes32"
        }
      ],
      "name": "migrateCaptable",
      "outputs": [],
      "stateMutability": "nonpayable",
      "type": "function"
    },
    {
      "inputs": [
        {
          "internalType": "address",
          "name": "adr",
          "type": "address"
        },
        {
          "internalType": "bytes32",
          "name": "id",
          "type": "bytes32"
        }
      ],
      "name": "que",
      "outputs": [],
      "stateMutability": "nonpayable",
      "type": "function"
    },
    {
      "inputs": [
        {
          "internalType": "address",
          "name": "adr",
          "type": "address"
        }
      ],
      "name": "remove",
      "outputs": [],
      "stateMutability": "nonpayable",
      "type": "function"
    },
    {
      "inputs": [
        {
          "internalType": "address[]",
          "name": "operators",
          "type": "address[]"
        }
      ],
      "name": "setControllers",
      "outputs": [],
      "stateMutability": "nonpayable",
      "type": "function"
    }
  ],
  "bytecode": "0x60806040523480156200001157600080fd5b50604051620016a0380380620016a08339810160408190526200003491620001f9565b80620000408162000048565b505062000305565b60005b600054811015620000c6576000600160008084815481106200007d57634e487b7160e01b600052603260045260246000fd5b6000918252602080832091909101546001600160a01b031683528201929092526040019020805460ff191691151591909117905580620000bd81620002c7565b9150506200004b565b5060005b815181101562000141576001806000848481518110620000fa57634e487b7160e01b600052603260045260246000fd5b6020908102919091018101516001600160a01b03168252810191909152604001600020805460ff1916911515919091179055806200013881620002c7565b915050620000ca565b508051620001579060009060208401906200015b565b5050565b828054828255906000526020600020908101928215620001b3579160200282015b82811115620001b357825182546001600160a01b0319166001600160a01b039091161782556020909201916001909101906200017c565b50620001c1929150620001c5565b5090565b5b80821115620001c15760008155600101620001c6565b80516001600160a01b0381168114620001f457600080fd5b919050565b600060208083850312156200020c578182fd5b82516001600160401b038082111562000223578384fd5b818501915085601f83011262000237578384fd5b8151818111156200024c576200024c620002ef565b838102604051858282010181811085821117156200026e576200026e620002ef565b604052828152858101935084860182860187018a10156200028d578788fd5b8795505b83861015620002ba57620002a581620001dc565b85526001959095019493860193860162000291565b5098975050505050505050565b6000600019821415620002e857634e487b7160e01b81526011600452602481fd5b5060010190565b634e487b7160e01b600052604160045260246000fd5b61138b80620003156000396000f3fe608060405234801561001057600080fd5b50600436106101005760003560e01c8063942b765a11610097578063d066919711610066578063d066919714610207578063daea85c51461021a578063ea3075451461022d578063ea74838a1461023557610100565b8063942b765a146101b957806398ad2f12146101c15780639f484555146101d4578063b429afeb146101e757610100565b806329092d0e116100d357806329092d0e1461016957806330ccebb51461017c57806363338b171461019c5780637cc0c3a7146101a457610100565b806304ecf1dd14610105578063160779561461012e5780631afeec641461014357806321f8a72114610156575b600080fd5b610118610113366004610f1d565b610248565b6040516101259190610f7d565b60405180910390f35b61014161013c366004610e83565b610263565b005b610141610151366004610e83565b610271565b610118610164366004610f1d565b61027b565b610141610177366004610e4b565b610296565b61018f61018a366004610e4b565b6102a2565b6040516101259190611002565b61018f6102bd565b6101ac6102c3565b6040516101259190610faa565b6101ac610325565b61018f6101cf366004610e4b565b610385565b6101416101e2366004610f1d565b6103a0565b6101fa6101f5366004610e4b565b6103a9565b6040516101259190610ff7565b610118610215366004610f1d565b6103c7565b610141610228366004610e4b565b6103d8565b61018f6103e1565b610141610243366004610eae565b6103e7565b6000908152600660205260409020546001600160a01b031690565b61026d8282610451565b5050565b61026d8282610551565b6000908152600560205260409020546001600160a01b031690565b61029f8161068e565b50565b6001600160a01b031660009081526003602052604090205490565b60075490565b6060600080548060200260200160405190810160405280929190818152602001828054801561031b57602002820191906000526020600020905b81546001600160a01b031681526001909101906020018083116102fd575b5050505050905090565b6060600280548060200260200160405190810160405280929190818152602001828054801561031b576020028201919060005260206000209081546001600160a01b031681526001909101906020018083116102fd575050505050905090565b6001600160a01b031660009081526004602052604090205490565b61029f81610776565b6001600160a01b031660009081526001602052604090205460ff1690565b60006103d2826108e1565b92915050565b61029f81610934565b60085490565b6103f0336103a9565b6104155760405162461bcd60e51b815260040161040c9061113d565b60405180910390fd5b61026d828280806020026020016040519081016040528093929190818152602001838360200280828437600092019190915250610b2992505050565b6001600160a01b0382166000908152600360205260409020546001146104895760405162461bcd60e51b815260040161040c90611080565b610492336103a9565b6104ae5760405162461bcd60e51b815260040161040c906110c3565b6001600160a01b038216600090815260036020819052604082205560088054916104d7836112f8565b90915550506001600160a01b03821660008181526004602090815260408083205480845260069092529182902080546001600160a01b031916905590519091907f871951f6860e8a0ee93166db037de507a4e83ab8a01c1d8a9afad96898f58a9590610544908590611002565b60405180910390a2505050565b6001600160a01b0382166000908152600360205260409020546001141561058a5760405162461bcd60e51b815260040161040c9061127c565b6001600160a01b038216600090815260036020526040902054600214156105c35760405162461bcd60e51b815260040161040c906111ba565b6002805460018181019092557f405787fa12a823e0f2b7631cc41b3ba8828b3321ca811111fa75cd3aa3bb5ace0180546001600160a01b0385166001600160a01b03199182168117909255600082815260036020908152604080832095909555600481528482208690558582526006905292832080549091169091179055600880549161064f8361130f565b909155505060405181906001600160a01b038416907f311b769747f528dd8f712c2a0e7e08bff5e50e4b74e5983e24d65aedd2579bb990600090a35050565b6001600160a01b0381166000908152600360205260409020546002146106c65760405162461bcd60e51b815260040161040c90611174565b6106cf336103a9565b6106eb5760405162461bcd60e51b815260040161040c906110c3565b6001600160a01b03811660009081526003602090815260408083206004908190558252808320548084526005909252822080546001600160a01b0319169055600780549192610739836112f8565b90915550506040516001600160a01b038316907f59f92f7caa16e166e81629c044a7dc429c7ec26acf8a7bae64322c0b91ce09b990600090a25050565b61077f336103a9565b61079b5760405162461bcd60e51b815260040161040c906110c3565b6000818152600560205260408120546001600160a01b0316906107bd836108e1565b6001600160a01b0383166000908152600360205260409020549091506002146107f85760405162461bcd60e51b815260040161040c90611174565b610801336103a9565b61081d5760405162461bcd60e51b815260040161040c906110c3565b816001600160a01b0316816001600160a01b0316141561084f5760405162461bcd60e51b815260040161040c90611239565b6001600160a01b0381166108755760405162461bcd60e51b815260040161040c906111f1565b6001600160a01b03828116600081815260036020908152604080832060029055878352600590915280822080546001600160a01b031916948616948517905551869392917f819a03a8906b3ff8963178143ad7a4b1b9f96e8a5c0503072321d12a1f2ab14b91a4505050565b6000818152600560209081526040808320548151808301909252600c82526b22a921989a18182a37b5b2b760a11b92820192909252829161092d916001600160a01b0390911690610c2c565b9392505050565b6001600160a01b03811660009081526003602052604090205460011461096c5760405162461bcd60e51b815260040161040c906110fa565b610975336103a9565b6109915760405162461bcd60e51b815260040161040c906110c3565b6001600160a01b0381166000908152600360209081526040808320600290556004825291829020548251808401909352601a83527f417070726f76696e67206361705461626c65207769746820696400000000000091830191909152906109f790610ce9565b610a0081610d2c565b604080518082018252601481527f707265206964546f41646472657373203d202573000000000000000000000000602080830191909152600084815260059091529190912054610a5991906001600160a01b0316610d6f565b6000818152600560205260409020546001600160a01b031615610a8e5760405162461bcd60e51b815260040161040c90611049565b600081815260056020908152604080832080546001600160a01b0387166001600160a01b03199182161790915560069092528220805490911690556008805491610ad7836112f8565b909155505060078054906000610aec8361130f565b90915550506040516001600160a01b038316907fd31d7a51ed1f0d96b385ba380d4ed4f90bd2f19dbda21b60e1c16244cc57707690600090a25050565b60005b600054811015610ba257600060016000808481548110610b5c57634e487b7160e01b600052603260045260246000fd5b6000918252602080832091909101546001600160a01b031683528201929092526040019020805460ff191691151591909117905580610b9a8161130f565b915050610b2c565b5060005b8151811015610c18576001806000848481518110610bd457634e487b7160e01b600052603260045260246000fd5b6020908102919091018101516001600160a01b03168252810191909152604001600020805460ff191691151591909117905580610c108161130f565b915050610ba6565b50805161026d906000906020840190610dd1565b60008082604051602001610c409190610f61565b60408051601f1981840301815290829052805160209091012063555ddc6560e11b82529150731820a4b7618bde71dce8cdc73aab6c95905fad249063aabbb8ca90610c919087908590600401610f91565b60206040518083038186803b158015610ca957600080fd5b505afa158015610cbd573d6000803e3d6000fd5b505050506040513d601f19601f82011682018060405250810190610ce19190610e67565b949350505050565b61029f81604051602401610cfd919061100b565b60408051601f198184030181529190526020810180516001600160e01b031663104c13eb60e21b179052610db0565b61029f81604051602401610d409190611002565b60408051601f198184030181529190526020810180516001600160e01b03166327b7cf8560e01b179052610db0565b61026d8282604051602401610d8592919061101e565b60408051601f198184030181529190526020810180516001600160e01b031663319af33360e01b1790525b80516a636f6e736f6c652e6c6f67602083016000808483855afa5050505050565b828054828255906000526020600020908101928215610e26579160200282015b82811115610e2657825182546001600160a01b0319166001600160a01b03909116178255602090920191600190910190610df1565b50610e32929150610e36565b5090565b5b80821115610e325760008155600101610e37565b600060208284031215610e5c578081fd5b813561092d81611340565b600060208284031215610e78578081fd5b815161092d81611340565b60008060408385031215610e95578081fd5b8235610ea081611340565b946020939093013593505050565b60008060208385031215610ec0578182fd5b823567ffffffffffffffff80821115610ed7578384fd5b818501915085601f830112610eea578384fd5b813581811115610ef8578485fd5b8660208083028501011115610f0b578485fd5b60209290920196919550909350505050565b600060208284031215610f2e578081fd5b5035919050565b60008151808452610f4d8160208601602086016112c8565b601f01601f19169290920160200192915050565b60008251610f738184602087016112c8565b9190910192915050565b6001600160a01b0391909116815260200190565b6001600160a01b03929092168252602082015260400190565b6020808252825182820181905260009190848201906040850190845b81811015610feb5783516001600160a01b031683529284019291840191600101610fc6565b50909695505050505050565b901515815260200190565b90815260200190565b60006020825261092d6020830184610f35565b6000604082526110316040830185610f35565b90506001600160a01b03831660208301529392505050565b60208082526015908201527f696420697320616c6c726561647920696e207573650000000000000000000000604082015260600190565b60208082526023908201527f4f6e6c792071756564206361705461626c65732063616e206265206465636c696040820152621b995960ea1b606082015260800190565b6020808252601c908201527f6d73672e73656e646572206973206e6f7420636f6e74726f6c6c657200000000604082015260600190565b60208082526023908201527f4f6e6c792071756564206361705461626c65732063616e20626520617070726f6040820152621d995960ea1b606082015260800190565b60208082526019908201527f6d73672e73656e646572206e6f7420636f6e74726f6c6c657200000000000000604082015260600190565b60208082526026908201527f4f6e6c7920617070726f766564206361705461626c65732063616e2062652072604082015265195b5bdd995960d21b606082015260800190565b6020808252601a908201527f43616e6e6f742071756520616374697665206361705461626c65000000000000604082015260600190565b60208082526028908201527f4361707461626c65206973206d6967726174656420746f20616e20656d707479604082015267206164647265737360c01b606082015260800190565b60208082526023908201527f4361707461626c65206973206e6f74206d6967726174656420696e204552433160408201526203832360ec1b606082015260800190565b6020808252602c908201527f51756564206361705461626c6573206d757374206265206465636c696e65642060408201526b6265666f726520726551756560a01b606082015260800190565b60005b838110156112e35781810151838201526020016112cb565b838111156112f2576000848401525b50505050565b6000816113075761130761132a565b506000190190565b60006000198214156113235761132361132a565b5060010190565b634e487b7160e01b600052601160045260246000fd5b6001600160a01b038116811461029f57600080fdfea2646970667358221220dfad683c7cd0741d86bd9fb1aa15be2db160cfb05df3f2e0a92b1fc836d5b4fc64736f6c63430008000033",
  "linkReferences": {},
  "deployedLinkReferences": {}
}