{
    "_format": "hh-sol-artifact-1",
    "contractName": "ERC1400",
    "sourceName": "contracts/ERC1400.sol",
    "abi": [
        {
            "inputs": [
                {
                    "internalType": "string",
                    "name": "name",
                    "type": "string"
                },
                {
                    "internalType": "string",
                    "name": "symbol",
                    "type": "string"
                },
                {
                    "internalType": "uint256",
                    "name": "granularity",
                    "type": "uint256"
                },
                {
                    "internalType": "address[]",
                    "name": "controllers",
                    "type": "address[]"
                },
                {
                    "internalType": "bytes32[]",
                    "name": "defaultPartitions",
                    "type": "bytes32[]"
                }
            ],
            "payable": false,
            "stateMutability": "nonpayable",
            "type": "constructor"
        },
        {
            "anonymous": false,
            "inputs": [
                {
                    "indexed": true,
                    "internalType": "address",
                    "name": "owner",
                    "type": "address"
                },
                {
                    "indexed": true,
                    "internalType": "address",
                    "name": "spender",
                    "type": "address"
                },
                {
                    "indexed": false,
                    "internalType": "uint256",
                    "name": "value",
                    "type": "uint256"
                }
            ],
            "name": "Approval",
            "type": "event"
        },
        {
            "anonymous": false,
            "inputs": [
                {
                    "indexed": true,
                    "internalType": "bytes32",
                    "name": "partition",
                    "type": "bytes32"
                },
                {
                    "indexed": true,
                    "internalType": "address",
                    "name": "owner",
                    "type": "address"
                },
                {
                    "indexed": true,
                    "internalType": "address",
                    "name": "spender",
                    "type": "address"
                },
                {
                    "indexed": false,
                    "internalType": "uint256",
                    "name": "value",
                    "type": "uint256"
                }
            ],
            "name": "ApprovalByPartition",
            "type": "event"
        },
        {
            "anonymous": false,
            "inputs": [
                {
                    "indexed": true,
                    "internalType": "address",
                    "name": "operator",
                    "type": "address"
                },
                {
                    "indexed": true,
                    "internalType": "address",
                    "name": "tokenHolder",
                    "type": "address"
                }
            ],
            "name": "AuthorizedOperator",
            "type": "event"
        },
        {
            "anonymous": false,
            "inputs": [
                {
                    "indexed": true,
                    "internalType": "bytes32",
                    "name": "partition",
                    "type": "bytes32"
                },
                {
                    "indexed": true,
                    "internalType": "address",
                    "name": "operator",
                    "type": "address"
                },
                {
                    "indexed": true,
                    "internalType": "address",
                    "name": "tokenHolder",
                    "type": "address"
                }
            ],
            "name": "AuthorizedOperatorByPartition",
            "type": "event"
        },
        {
            "anonymous": false,
            "inputs": [
                {
                    "indexed": true,
                    "internalType": "bytes32",
                    "name": "fromPartition",
                    "type": "bytes32"
                },
                {
                    "indexed": true,
                    "internalType": "bytes32",
                    "name": "toPartition",
                    "type": "bytes32"
                },
                {
                    "indexed": false,
                    "internalType": "uint256",
                    "name": "value",
                    "type": "uint256"
                }
            ],
            "name": "ChangedPartition",
            "type": "event"
        },
        {
            "anonymous": false,
            "inputs": [
                {
                    "indexed": true,
                    "internalType": "bytes32",
                    "name": "name",
                    "type": "bytes32"
                },
                {
                    "indexed": false,
                    "internalType": "string",
                    "name": "uri",
                    "type": "string"
                },
                {
                    "indexed": false,
                    "internalType": "bytes32",
                    "name": "documentHash",
                    "type": "bytes32"
                }
            ],
            "name": "Document",
            "type": "event"
        },
        {
            "anonymous": false,
            "inputs": [
                {
                    "indexed": true,
                    "internalType": "address",
                    "name": "operator",
                    "type": "address"
                },
                {
                    "indexed": true,
                    "internalType": "address",
                    "name": "to",
                    "type": "address"
                },
                {
                    "indexed": false,
                    "internalType": "uint256",
                    "name": "value",
                    "type": "uint256"
                },
                {
                    "indexed": false,
                    "internalType": "bytes",
                    "name": "data",
                    "type": "bytes"
                }
            ],
            "name": "Issued",
            "type": "event"
        },
        {
            "anonymous": false,
            "inputs": [
                {
                    "indexed": true,
                    "internalType": "bytes32",
                    "name": "partition",
                    "type": "bytes32"
                },
                {
                    "indexed": true,
                    "internalType": "address",
                    "name": "operator",
                    "type": "address"
                },
                {
                    "indexed": true,
                    "internalType": "address",
                    "name": "to",
                    "type": "address"
                },
                {
                    "indexed": false,
                    "internalType": "uint256",
                    "name": "value",
                    "type": "uint256"
                },
                {
                    "indexed": false,
                    "internalType": "bytes",
                    "name": "data",
                    "type": "bytes"
                },
                {
                    "indexed": false,
                    "internalType": "bytes",
                    "name": "operatorData",
                    "type": "bytes"
                }
            ],
            "name": "IssuedByPartition",
            "type": "event"
        },
        {
            "anonymous": false,
            "inputs": [
                {
                    "indexed": true,
                    "internalType": "address",
                    "name": "account",
                    "type": "address"
                }
            ],
            "name": "MinterAdded",
            "type": "event"
        },
        {
            "anonymous": false,
            "inputs": [
                {
                    "indexed": true,
                    "internalType": "address",
                    "name": "account",
                    "type": "address"
                }
            ],
            "name": "MinterRemoved",
            "type": "event"
        },
        {
            "anonymous": false,
            "inputs": [
                {
                    "indexed": true,
                    "internalType": "address",
                    "name": "previousOwner",
                    "type": "address"
                },
                {
                    "indexed": true,
                    "internalType": "address",
                    "name": "newOwner",
                    "type": "address"
                }
            ],
            "name": "OwnershipTransferred",
            "type": "event"
        },
        {
            "anonymous": false,
            "inputs": [
                {
                    "indexed": true,
                    "internalType": "address",
                    "name": "operator",
                    "type": "address"
                },
                {
                    "indexed": true,
                    "internalType": "address",
                    "name": "from",
                    "type": "address"
                },
                {
                    "indexed": false,
                    "internalType": "uint256",
                    "name": "value",
                    "type": "uint256"
                },
                {
                    "indexed": false,
                    "internalType": "bytes",
                    "name": "data",
                    "type": "bytes"
                }
            ],
            "name": "Redeemed",
            "type": "event"
        },
        {
            "anonymous": false,
            "inputs": [
                {
                    "indexed": true,
                    "internalType": "bytes32",
                    "name": "partition",
                    "type": "bytes32"
                },
                {
                    "indexed": true,
                    "internalType": "address",
                    "name": "operator",
                    "type": "address"
                },
                {
                    "indexed": true,
                    "internalType": "address",
                    "name": "from",
                    "type": "address"
                },
                {
                    "indexed": false,
                    "internalType": "uint256",
                    "name": "value",
                    "type": "uint256"
                },
                {
                    "indexed": false,
                    "internalType": "bytes",
                    "name": "operatorData",
                    "type": "bytes"
                }
            ],
            "name": "RedeemedByPartition",
            "type": "event"
        },
        {
            "anonymous": false,
            "inputs": [
                {
                    "indexed": true,
                    "internalType": "address",
                    "name": "operator",
                    "type": "address"
                },
                {
                    "indexed": true,
                    "internalType": "address",
                    "name": "tokenHolder",
                    "type": "address"
                }
            ],
            "name": "RevokedOperator",
            "type": "event"
        },
        {
            "anonymous": false,
            "inputs": [
                {
                    "indexed": true,
                    "internalType": "bytes32",
                    "name": "partition",
                    "type": "bytes32"
                },
                {
                    "indexed": true,
                    "internalType": "address",
                    "name": "operator",
                    "type": "address"
                },
                {
                    "indexed": true,
                    "internalType": "address",
                    "name": "tokenHolder",
                    "type": "address"
                }
            ],
            "name": "RevokedOperatorByPartition",
            "type": "event"
        },
        {
            "anonymous": false,
            "inputs": [
                {
                    "indexed": true,
                    "internalType": "address",
                    "name": "from",
                    "type": "address"
                },
                {
                    "indexed": true,
                    "internalType": "address",
                    "name": "to",
                    "type": "address"
                },
                {
                    "indexed": false,
                    "internalType": "uint256",
                    "name": "value",
                    "type": "uint256"
                }
            ],
            "name": "Transfer",
            "type": "event"
        },
        {
            "anonymous": false,
            "inputs": [
                {
                    "indexed": true,
                    "internalType": "bytes32",
                    "name": "fromPartition",
                    "type": "bytes32"
                },
                {
                    "indexed": false,
                    "internalType": "address",
                    "name": "operator",
                    "type": "address"
                },
                {
                    "indexed": true,
                    "internalType": "address",
                    "name": "from",
                    "type": "address"
                },
                {
                    "indexed": true,
                    "internalType": "address",
                    "name": "to",
                    "type": "address"
                },
                {
                    "indexed": false,
                    "internalType": "uint256",
                    "name": "value",
                    "type": "uint256"
                },
                {
                    "indexed": false,
                    "internalType": "bytes",
                    "name": "data",
                    "type": "bytes"
                },
                {
                    "indexed": false,
                    "internalType": "bytes",
                    "name": "operatorData",
                    "type": "bytes"
                }
            ],
            "name": "TransferByPartition",
            "type": "event"
        },
        {
            "constant": false,
            "inputs": [
                {
                    "internalType": "address",
                    "name": "account",
                    "type": "address"
                }
            ],
            "name": "addMinter",
            "outputs": [],
            "payable": false,
            "stateMutability": "nonpayable",
            "type": "function"
        },
        {
            "constant": true,
            "inputs": [
                {
                    "internalType": "address",
                    "name": "owner",
                    "type": "address"
                },
                {
                    "internalType": "address",
                    "name": "spender",
                    "type": "address"
                }
            ],
            "name": "allowance",
            "outputs": [
                {
                    "internalType": "uint256",
                    "name": "",
                    "type": "uint256"
                }
            ],
            "payable": false,
            "stateMutability": "view",
            "type": "function"
        },
        {
            "constant": true,
            "inputs": [
                {
                    "internalType": "bytes32",
                    "name": "partition",
                    "type": "bytes32"
                },
                {
                    "internalType": "address",
                    "name": "owner",
                    "type": "address"
                },
                {
                    "internalType": "address",
                    "name": "spender",
                    "type": "address"
                }
            ],
            "name": "allowanceByPartition",
            "outputs": [
                {
                    "internalType": "uint256",
                    "name": "",
                    "type": "uint256"
                }
            ],
            "payable": false,
            "stateMutability": "view",
            "type": "function"
        },
        {
            "constant": false,
            "inputs": [
                {
                    "internalType": "address",
                    "name": "spender",
                    "type": "address"
                },
                {
                    "internalType": "uint256",
                    "name": "value",
                    "type": "uint256"
                }
            ],
            "name": "approve",
            "outputs": [
                {
                    "internalType": "bool",
                    "name": "",
                    "type": "bool"
                }
            ],
            "payable": false,
            "stateMutability": "nonpayable",
            "type": "function"
        },
        {
            "constant": false,
            "inputs": [
                {
                    "internalType": "bytes32",
                    "name": "partition",
                    "type": "bytes32"
                },
                {
                    "internalType": "address",
                    "name": "spender",
                    "type": "address"
                },
                {
                    "internalType": "uint256",
                    "name": "value",
                    "type": "uint256"
                }
            ],
            "name": "approveByPartition",
            "outputs": [
                {
                    "internalType": "bool",
                    "name": "",
                    "type": "bool"
                }
            ],
            "payable": false,
            "stateMutability": "nonpayable",
            "type": "function"
        },
        {
            "constant": false,
            "inputs": [
                {
                    "internalType": "address",
                    "name": "operator",
                    "type": "address"
                }
            ],
            "name": "authorizeOperator",
            "outputs": [],
            "payable": false,
            "stateMutability": "nonpayable",
            "type": "function"
        },
        {
            "constant": false,
            "inputs": [
                {
                    "internalType": "bytes32",
                    "name": "partition",
                    "type": "bytes32"
                },
                {
                    "internalType": "address",
                    "name": "operator",
                    "type": "address"
                }
            ],
            "name": "authorizeOperatorByPartition",
            "outputs": [],
            "payable": false,
            "stateMutability": "nonpayable",
            "type": "function"
        },
        {
            "constant": true,
            "inputs": [
                {
                    "internalType": "address",
                    "name": "tokenHolder",
                    "type": "address"
                }
            ],
            "name": "balanceOf",
            "outputs": [
                {
                    "internalType": "uint256",
                    "name": "",
                    "type": "uint256"
                }
            ],
            "payable": false,
            "stateMutability": "view",
            "type": "function"
        },
        {
            "constant": true,
            "inputs": [
                {
                    "internalType": "bytes32",
                    "name": "partition",
                    "type": "bytes32"
                },
                {
                    "internalType": "address",
                    "name": "tokenHolder",
                    "type": "address"
                }
            ],
            "name": "balanceOfByPartition",
            "outputs": [
                {
                    "internalType": "uint256",
                    "name": "",
                    "type": "uint256"
                }
            ],
            "payable": false,
            "stateMutability": "view",
            "type": "function"
        },
        {
            "constant": true,
            "inputs": [
                {
                    "internalType": "bytes32",
                    "name": "interfaceHash",
                    "type": "bytes32"
                },
                {
                    "internalType": "address",
                    "name": "",
                    "type": "address"
                }
            ],
            "name": "canImplementInterfaceForAddress",
            "outputs": [
                {
                    "internalType": "bytes32",
                    "name": "",
                    "type": "bytes32"
                }
            ],
            "payable": false,
            "stateMutability": "view",
            "type": "function"
        },
        {
            "constant": true,
            "inputs": [],
            "name": "controllers",
            "outputs": [
                {
                    "internalType": "address[]",
                    "name": "",
                    "type": "address[]"
                }
            ],
            "payable": false,
            "stateMutability": "view",
            "type": "function"
        },
        {
            "constant": true,
            "inputs": [
                {
                    "internalType": "bytes32",
                    "name": "partition",
                    "type": "bytes32"
                }
            ],
            "name": "controllersByPartition",
            "outputs": [
                {
                    "internalType": "address[]",
                    "name": "",
                    "type": "address[]"
                }
            ],
            "payable": false,
            "stateMutability": "view",
            "type": "function"
        },
        {
            "constant": true,
            "inputs": [],
            "name": "decimals",
            "outputs": [
                {
                    "internalType": "uint8",
                    "name": "",
                    "type": "uint8"
                }
            ],
            "payable": false,
            "stateMutability": "pure",
            "type": "function"
        },
        {
            "constant": true,
            "inputs": [],
            "name": "getDefaultPartitions",
            "outputs": [
                {
                    "internalType": "bytes32[]",
                    "name": "",
                    "type": "bytes32[]"
                }
            ],
            "payable": false,
            "stateMutability": "view",
            "type": "function"
        },
        {
            "constant": true,
            "inputs": [
                {
                    "internalType": "bytes32",
                    "name": "name",
                    "type": "bytes32"
                }
            ],
            "name": "getDocument",
            "outputs": [
                {
                    "internalType": "string",
                    "name": "",
                    "type": "string"
                },
                {
                    "internalType": "bytes32",
                    "name": "",
                    "type": "bytes32"
                }
            ],
            "payable": false,
            "stateMutability": "view",
            "type": "function"
        },
        {
            "constant": true,
            "inputs": [],
            "name": "granularity",
            "outputs": [
                {
                    "internalType": "uint256",
                    "name": "",
                    "type": "uint256"
                }
            ],
            "payable": false,
            "stateMutability": "view",
            "type": "function"
        },
        {
            "constant": true,
            "inputs": [],
            "name": "isControllable",
            "outputs": [
                {
                    "internalType": "bool",
                    "name": "",
                    "type": "bool"
                }
            ],
            "payable": false,
            "stateMutability": "view",
            "type": "function"
        },
        {
            "constant": true,
            "inputs": [],
            "name": "isIssuable",
            "outputs": [
                {
                    "internalType": "bool",
                    "name": "",
                    "type": "bool"
                }
            ],
            "payable": false,
            "stateMutability": "view",
            "type": "function"
        },
        {
            "constant": true,
            "inputs": [
                {
                    "internalType": "address",
                    "name": "account",
                    "type": "address"
                }
            ],
            "name": "isMinter",
            "outputs": [
                {
                    "internalType": "bool",
                    "name": "",
                    "type": "bool"
                }
            ],
            "payable": false,
            "stateMutability": "view",
            "type": "function"
        },
        {
            "constant": true,
            "inputs": [
                {
                    "internalType": "address",
                    "name": "operator",
                    "type": "address"
                },
                {
                    "internalType": "address",
                    "name": "tokenHolder",
                    "type": "address"
                }
            ],
            "name": "isOperator",
            "outputs": [
                {
                    "internalType": "bool",
                    "name": "",
                    "type": "bool"
                }
            ],
            "payable": false,
            "stateMutability": "view",
            "type": "function"
        },
        {
            "constant": true,
            "inputs": [
                {
                    "internalType": "bytes32",
                    "name": "partition",
                    "type": "bytes32"
                },
                {
                    "internalType": "address",
                    "name": "operator",
                    "type": "address"
                },
                {
                    "internalType": "address",
                    "name": "tokenHolder",
                    "type": "address"
                }
            ],
            "name": "isOperatorForPartition",
            "outputs": [
                {
                    "internalType": "bool",
                    "name": "",
                    "type": "bool"
                }
            ],
            "payable": false,
            "stateMutability": "view",
            "type": "function"
        },
        {
            "constant": true,
            "inputs": [],
            "name": "isOwner",
            "outputs": [
                {
                    "internalType": "bool",
                    "name": "",
                    "type": "bool"
                }
            ],
            "payable": false,
            "stateMutability": "view",
            "type": "function"
        },
        {
            "constant": false,
            "inputs": [
                {
                    "internalType": "address",
                    "name": "tokenHolder",
                    "type": "address"
                },
                {
                    "internalType": "uint256",
                    "name": "value",
                    "type": "uint256"
                },
                {
                    "internalType": "bytes",
                    "name": "data",
                    "type": "bytes"
                }
            ],
            "name": "issue",
            "outputs": [],
            "payable": false,
            "stateMutability": "nonpayable",
            "type": "function"
        },
        {
            "constant": false,
            "inputs": [
                {
                    "internalType": "bytes32",
                    "name": "partition",
                    "type": "bytes32"
                },
                {
                    "internalType": "address",
                    "name": "tokenHolder",
                    "type": "address"
                },
                {
                    "internalType": "uint256",
                    "name": "value",
                    "type": "uint256"
                },
                {
                    "internalType": "bytes",
                    "name": "data",
                    "type": "bytes"
                }
            ],
            "name": "issueByPartition",
            "outputs": [],
            "payable": false,
            "stateMutability": "nonpayable",
            "type": "function"
        },
        {
            "constant": false,
            "inputs": [
                {
                    "internalType": "address",
                    "name": "newContractAddress",
                    "type": "address"
                },
                {
                    "internalType": "bool",
                    "name": "definitive",
                    "type": "bool"
                }
            ],
            "name": "migrate",
            "outputs": [],
            "payable": false,
            "stateMutability": "nonpayable",
            "type": "function"
        },
        {
            "constant": true,
            "inputs": [],
            "name": "name",
            "outputs": [
                {
                    "internalType": "string",
                    "name": "",
                    "type": "string"
                }
            ],
            "payable": false,
            "stateMutability": "view",
            "type": "function"
        },
        {
            "constant": false,
            "inputs": [
                {
                    "internalType": "bytes32",
                    "name": "partition",
                    "type": "bytes32"
                },
                {
                    "internalType": "address",
                    "name": "tokenHolder",
                    "type": "address"
                },
                {
                    "internalType": "uint256",
                    "name": "value",
                    "type": "uint256"
                },
                {
                    "internalType": "bytes",
                    "name": "operatorData",
                    "type": "bytes"
                }
            ],
            "name": "operatorRedeemByPartition",
            "outputs": [],
            "payable": false,
            "stateMutability": "nonpayable",
            "type": "function"
        },
        {
            "constant": false,
            "inputs": [
                {
                    "internalType": "bytes32",
                    "name": "partition",
                    "type": "bytes32"
                },
                {
                    "internalType": "address",
                    "name": "from",
                    "type": "address"
                },
                {
                    "internalType": "address",
                    "name": "to",
                    "type": "address"
                },
                {
                    "internalType": "uint256",
                    "name": "value",
                    "type": "uint256"
                },
                {
                    "internalType": "bytes",
                    "name": "data",
                    "type": "bytes"
                },
                {
                    "internalType": "bytes",
                    "name": "operatorData",
                    "type": "bytes"
                }
            ],
            "name": "operatorTransferByPartition",
            "outputs": [
                {
                    "internalType": "bytes32",
                    "name": "",
                    "type": "bytes32"
                }
            ],
            "payable": false,
            "stateMutability": "nonpayable",
            "type": "function"
        },
        {
            "constant": true,
            "inputs": [],
            "name": "owner",
            "outputs": [
                {
                    "internalType": "address",
                    "name": "",
                    "type": "address"
                }
            ],
            "payable": false,
            "stateMutability": "view",
            "type": "function"
        },
        {
            "constant": true,
            "inputs": [
                {
                    "internalType": "address",
                    "name": "tokenHolder",
                    "type": "address"
                }
            ],
            "name": "partitionsOf",
            "outputs": [
                {
                    "internalType": "bytes32[]",
                    "name": "",
                    "type": "bytes32[]"
                }
            ],
            "payable": false,
            "stateMutability": "view",
            "type": "function"
        },
        {
            "constant": false,
            "inputs": [
                {
                    "internalType": "uint256",
                    "name": "value",
                    "type": "uint256"
                },
                {
                    "internalType": "bytes",
                    "name": "data",
                    "type": "bytes"
                }
            ],
            "name": "redeem",
            "outputs": [],
            "payable": false,
            "stateMutability": "nonpayable",
            "type": "function"
        },
        {
            "constant": false,
            "inputs": [
                {
                    "internalType": "bytes32",
                    "name": "partition",
                    "type": "bytes32"
                },
                {
                    "internalType": "uint256",
                    "name": "value",
                    "type": "uint256"
                },
                {
                    "internalType": "bytes",
                    "name": "data",
                    "type": "bytes"
                }
            ],
            "name": "redeemByPartition",
            "outputs": [],
            "payable": false,
            "stateMutability": "nonpayable",
            "type": "function"
        },
        {
            "constant": false,
            "inputs": [
                {
                    "internalType": "address",
                    "name": "from",
                    "type": "address"
                },
                {
                    "internalType": "uint256",
                    "name": "value",
                    "type": "uint256"
                },
                {
                    "internalType": "bytes",
                    "name": "data",
                    "type": "bytes"
                }
            ],
            "name": "redeemFrom",
            "outputs": [],
            "payable": false,
            "stateMutability": "nonpayable",
            "type": "function"
        },
        {
            "constant": false,
            "inputs": [
                {
                    "internalType": "address",
                    "name": "account",
                    "type": "address"
                }
            ],
            "name": "removeMinter",
            "outputs": [],
            "payable": false,
            "stateMutability": "nonpayable",
            "type": "function"
        },
        {
            "constant": false,
            "inputs": [],
            "name": "renounceControl",
            "outputs": [],
            "payable": false,
            "stateMutability": "nonpayable",
            "type": "function"
        },
        {
            "constant": false,
            "inputs": [],
            "name": "renounceIssuance",
            "outputs": [],
            "payable": false,
            "stateMutability": "nonpayable",
            "type": "function"
        },
        {
            "constant": false,
            "inputs": [],
            "name": "renounceMinter",
            "outputs": [],
            "payable": false,
            "stateMutability": "nonpayable",
            "type": "function"
        },
        {
            "constant": false,
            "inputs": [],
            "name": "renounceOwnership",
            "outputs": [],
            "payable": false,
            "stateMutability": "nonpayable",
            "type": "function"
        },
        {
            "constant": false,
            "inputs": [
                {
                    "internalType": "address",
                    "name": "operator",
                    "type": "address"
                }
            ],
            "name": "revokeOperator",
            "outputs": [],
            "payable": false,
            "stateMutability": "nonpayable",
            "type": "function"
        },
        {
            "constant": false,
            "inputs": [
                {
                    "internalType": "bytes32",
                    "name": "partition",
                    "type": "bytes32"
                },
                {
                    "internalType": "address",
                    "name": "operator",
                    "type": "address"
                }
            ],
            "name": "revokeOperatorByPartition",
            "outputs": [],
            "payable": false,
            "stateMutability": "nonpayable",
            "type": "function"
        },
        {
            "constant": false,
            "inputs": [
                {
                    "internalType": "address[]",
                    "name": "operators",
                    "type": "address[]"
                }
            ],
            "name": "setControllers",
            "outputs": [],
            "payable": false,
            "stateMutability": "nonpayable",
            "type": "function"
        },
        {
            "constant": false,
            "inputs": [
                {
                    "internalType": "bytes32[]",
                    "name": "partitions",
                    "type": "bytes32[]"
                }
            ],
            "name": "setDefaultPartitions",
            "outputs": [],
            "payable": false,
            "stateMutability": "nonpayable",
            "type": "function"
        },
        {
            "constant": false,
            "inputs": [
                {
                    "internalType": "bytes32",
                    "name": "name",
                    "type": "bytes32"
                },
                {
                    "internalType": "string",
                    "name": "uri",
                    "type": "string"
                },
                {
                    "internalType": "bytes32",
                    "name": "documentHash",
                    "type": "bytes32"
                }
            ],
            "name": "setDocument",
            "outputs": [],
            "payable": false,
            "stateMutability": "nonpayable",
            "type": "function"
        },
        {
            "constant": false,
            "inputs": [
                {
                    "internalType": "bytes32",
                    "name": "partition",
                    "type": "bytes32"
                },
                {
                    "internalType": "address[]",
                    "name": "operators",
                    "type": "address[]"
                }
            ],
            "name": "setPartitionControllers",
            "outputs": [],
            "payable": false,
            "stateMutability": "nonpayable",
            "type": "function"
        },
        {
            "constant": false,
            "inputs": [
                {
                    "internalType": "address",
                    "name": "extension",
                    "type": "address"
                },
                {
                    "internalType": "string",
                    "name": "interfaceLabel",
                    "type": "string"
                },
                {
                    "internalType": "bool",
                    "name": "removeOldExtensionRoles",
                    "type": "bool"
                },
                {
                    "internalType": "bool",
                    "name": "addMinterRoleForExtension",
                    "type": "bool"
                },
                {
                    "internalType": "bool",
                    "name": "addControllerRoleForExtension",
                    "type": "bool"
                }
            ],
            "name": "setTokenExtension",
            "outputs": [],
            "payable": false,
            "stateMutability": "nonpayable",
            "type": "function"
        },
        {
            "constant": true,
            "inputs": [],
            "name": "symbol",
            "outputs": [
                {
                    "internalType": "string",
                    "name": "",
                    "type": "string"
                }
            ],
            "payable": false,
            "stateMutability": "view",
            "type": "function"
        },
        {
            "constant": true,
            "inputs": [],
            "name": "totalPartitions",
            "outputs": [
                {
                    "internalType": "bytes32[]",
                    "name": "",
                    "type": "bytes32[]"
                }
            ],
            "payable": false,
            "stateMutability": "view",
            "type": "function"
        },
        {
            "constant": true,
            "inputs": [],
            "name": "totalSupply",
            "outputs": [
                {
                    "internalType": "uint256",
                    "name": "",
                    "type": "uint256"
                }
            ],
            "payable": false,
            "stateMutability": "view",
            "type": "function"
        },
        {
            "constant": true,
            "inputs": [
                {
                    "internalType": "bytes32",
                    "name": "partition",
                    "type": "bytes32"
                }
            ],
            "name": "totalSupplyByPartition",
            "outputs": [
                {
                    "internalType": "uint256",
                    "name": "",
                    "type": "uint256"
                }
            ],
            "payable": false,
            "stateMutability": "view",
            "type": "function"
        },
        {
            "constant": false,
            "inputs": [
                {
                    "internalType": "address",
                    "name": "to",
                    "type": "address"
                },
                {
                    "internalType": "uint256",
                    "name": "value",
                    "type": "uint256"
                }
            ],
            "name": "transfer",
            "outputs": [
                {
                    "internalType": "bool",
                    "name": "",
                    "type": "bool"
                }
            ],
            "payable": false,
            "stateMutability": "nonpayable",
            "type": "function"
        },
        {
            "constant": false,
            "inputs": [
                {
                    "internalType": "bytes32",
                    "name": "partition",
                    "type": "bytes32"
                },
                {
                    "internalType": "address",
                    "name": "to",
                    "type": "address"
                },
                {
                    "internalType": "uint256",
                    "name": "value",
                    "type": "uint256"
                },
                {
                    "internalType": "bytes",
                    "name": "data",
                    "type": "bytes"
                }
            ],
            "name": "transferByPartition",
            "outputs": [
                {
                    "internalType": "bytes32",
                    "name": "",
                    "type": "bytes32"
                }
            ],
            "payable": false,
            "stateMutability": "nonpayable",
            "type": "function"
        },
        {
            "constant": false,
            "inputs": [
                {
                    "internalType": "address",
                    "name": "from",
                    "type": "address"
                },
                {
                    "internalType": "address",
                    "name": "to",
                    "type": "address"
                },
                {
                    "internalType": "uint256",
                    "name": "value",
                    "type": "uint256"
                }
            ],
            "name": "transferFrom",
            "outputs": [
                {
                    "internalType": "bool",
                    "name": "",
                    "type": "bool"
                }
            ],
            "payable": false,
            "stateMutability": "nonpayable",
            "type": "function"
        },
        {
            "constant": false,
            "inputs": [
                {
                    "internalType": "address",
                    "name": "from",
                    "type": "address"
                },
                {
                    "internalType": "address",
                    "name": "to",
                    "type": "address"
                },
                {
                    "internalType": "uint256",
                    "name": "value",
                    "type": "uint256"
                },
                {
                    "internalType": "bytes",
                    "name": "data",
                    "type": "bytes"
                }
            ],
            "name": "transferFromWithData",
            "outputs": [],
            "payable": false,
            "stateMutability": "nonpayable",
            "type": "function"
        },
        {
            "constant": false,
            "inputs": [
                {
                    "internalType": "address",
                    "name": "newOwner",
                    "type": "address"
                }
            ],
            "name": "transferOwnership",
            "outputs": [],
            "payable": false,
            "stateMutability": "nonpayable",
            "type": "function"
        },
        {
            "constant": false,
            "inputs": [
                {
                    "internalType": "address",
                    "name": "to",
                    "type": "address"
                },
                {
                    "internalType": "uint256",
                    "name": "value",
                    "type": "uint256"
                },
                {
                    "internalType": "bytes",
                    "name": "data",
                    "type": "bytes"
                }
            ],
            "name": "transferWithData",
            "outputs": [],
            "payable": false,
            "stateMutability": "nonpayable",
            "type": "function"
        }
    ],
    "bytecode": "0x60806040523480156200001157600080fd5b5060405162004f0238038062004f02833981810160405260a08110156200003757600080fd5b81019080805160405193929190846401000000008211156200005857600080fd5b9083019060208201858111156200006e57600080fd5b82516401000000008111828201881017156200008957600080fd5b82525081516020918201929091019080838360005b83811015620000b85781810151838201526020016200009e565b50505050905090810190601f168015620000e65780820380516001836020036101000a031916815260200191505b50604052602001805160405193929190846401000000008211156200010a57600080fd5b9083019060208201858111156200012057600080fd5b82516401000000008111828201881017156200013b57600080fd5b82525081516020918201929091019080838360005b838110156200016a57818101518382015260200162000150565b50505050905090810190601f168015620001985780820380516001836020036101000a031916815260200191505b50604081815260208301519201805192949193919284640100000000821115620001c157600080fd5b908301906020820185811115620001d757600080fd5b8251866020820283011164010000000082111715620001f557600080fd5b82525081516020918201928201910280838360005b83811015620002245781810151838201526020016200020a565b50505050905001604052602001805160405193929190846401000000008211156200024e57600080fd5b9083019060208201858111156200026457600080fd5b82518660208202830111640100000000821117156200028257600080fd5b82525081516020918201928201910280838360005b83811015620002b157818101518382015260200162000297565b50505050919091016040819052600080546001600160a01b03191633178082556001600160a01b0316955093507f8be0079c531659141344cd1fd0a4f28419497f9722a3daafe3b4186f6b6457e09250839150a362000319336001600160e01b036200049816565b84516200032e906003906020880190620007e2565b50835162000344906004906020870190620007e2565b50600060065560018310156200035957600080fd5b600583905562000372826001600160e01b03620004ea16565b80516200038790601190602084019062000867565b506007805462ff00001961ff001990911661010017166201000017905560408051808201909152600c81526b22a921989a18182a37b5b2b760a11b602080830191909152620003e29190309062004096620005bf821b17901c565b6200041b6040518060400160405280600a81526020016922a92199182a37b5b2b760b11b81525030620005bf60201b620040961760201c565b620004556040518060400160405280600c81526020016b22a921989a18182a37b5b2b760a11b815250620006b660201b620044d11760201c565b6200048d6040518060400160405280600a81526020016922a92199182a37b5b2b760b11b815250620006b660201b620044d11760201c565b505050505062000951565b620004b38160026200075360201b620041801790919060201c565b6040516001600160a01b038216907f6ae172837ea30b801fbfcdd4108aa1d5bf8ff775444fd70256b44e6bf3dfc3f690600090a250565b60005b6013548110156200054957600060146000601384815481106200050c57fe5b6000918252602080832091909101546001600160a01b031683528201929092526040019020805460ff1916911515919091179055600101620004ed565b5060005b8151811015620005a5576001601460008484815181106200056a57fe5b6020908102919091018101516001600160a01b03168252810191909152604001600020805460ff19169115159190911790556001016200054d565b508051620005bb906013906020840190620008a4565b5050565b6000826040516020018082805190602001908083835b60208310620005f65780518252601f199092019160209182019101620005d5565b51815160209384036101000a60001901801990921691161790526040805192909401828103601f19018352808552825192909101919091206329965a1d60e01b8252306004830152602482018190526001600160a01b03881660448301529251929550731820a4b7618bde71dce8cdc73aab6c95905fad2494506329965a1d9350606480820193600093509182900301818387803b1580156200069857600080fd5b505af1158015620006ad573d6000803e3d6000fd5b50505050505050565b6001806000836040516020018082805190602001908083835b60208310620006f05780518252601f199092019160209182019101620006cf565b6001836020036101000a03801982511681845116808217855250505050505090500191505060405160208183030381529060405280519060200120815260200190815260200160002060006101000a81548160ff02191690831515021790555050565b6001600160a01b0381166200076757600080fd5b6200077c82826001600160e01b03620007ac16565b156200078757600080fd5b6001600160a01b0316600090815260209190915260409020805460ff19166001179055565b60006001600160a01b038216620007c257600080fd5b506001600160a01b03166000908152602091909152604090205460ff1690565b828054600181600116156101000203166002900490600052602060002090601f016020900481019282601f106200082557805160ff191683800117855562000855565b8280016001018555821562000855579182015b828111156200085557825182559160200191906001019062000838565b50620008639291506200090a565b5090565b8280548282559060005260206000209081019282156200085557916020028201828111156200085557825182559160200191906001019062000838565b828054828255906000526020600020908101928215620008fc579160200282015b82811115620008fc57825182546001600160a01b0319166001600160a01b03909116178255602090920191600190910190620008c5565b50620008639291506200092a565b6200092791905b8082111562000863576000815560010162000911565b90565b6200092791905b80821115620008635780546001600160a01b031916815560010162000931565b6145a180620009616000396000f3fe608060405234801561001057600080fd5b506004361061036d5760003560e01c8063861ed3ea116101d3578063aa271e1a11610104578063e77c646d116100a2578063ee532f311161007c578063ee532f3114610ff2578063f2fde38b14611080578063f3d490db146110a6578063fad8b32a146111305761036d565b8063e77c646d14610ea1578063ea74838a14610f16578063ec9a6e8714610f845761036d565b8063bb3acde9116100de578063bb3acde914610de0578063bcfdc0cf14610e63578063ca281fd914610e6b578063dd62ed3e14610e735761036d565b8063aa271e1a14610cf0578063b10d6b4114610d16578063b6363cf214610db25761036d565b80639675193c1161017157806398ddcec71161014b57806398ddcec714610b8d578063a26734dc14610c17578063a6f4f10514610c34578063a9059cbb14610cc45761036d565b80639675193c14610adc578063983b2d5614610b5f5780639865027514610b855761036d565b80638f32d59b116101ad5780638f32d59b14610a78578063933964c714610a80578063959b8c3f14610aae57806395d89b4114610ad45761036d565b8063861ed3ea146109545780638c0dee9c146109715780638da5cb5b14610a545761036d565b80633092afd5116102ad57806369598efe1161024b57806370a082311161022557806370a08231146108f8578063715018a61461091e578063740ab8f4146109265780637cc0c3a71461094c5761036d565b806369598efe146108645780636c30d170146108bc5780636d77cad6146108c45761036d565b80634c783bf5116102875780634c783bf514610750578063556f0dc71461075857806362eb00681461076057806367c84919146107da5761036d565b80633092afd5146106e057806330e8280314610706578063313ce567146107325761036d565b806316e1aed41161031a57806323b872dd116102f457806323b872dd146105f3578063249cb3fa146106295780632535f762146106555780632f1cae85146106d85761036d565b806316e1aed41461053057806317ec83ca146105a557806318160ddd146105eb5761036d565b8063103ef9e11161034b578063103ef9e1146104a657806314d1e62f146104d2578063168ecec5146105045761036d565b8063010648ca1461037257806306fdde03146103e9578063095ea7b314610466575b600080fd5b6103e76004803603606081101561038857600080fd5b81359190810190604081016020820135600160201b8111156103a957600080fd5b8201836020820111156103bb57600080fd5b803590602001918460018302840111600160201b831117156103dc57600080fd5b919350915035611156565b005b6103f1611254565b6040805160208082528351818301528351919283929083019185019080838360005b8381101561042b578181015183820152602001610413565b50505050905090810190601f1680156104585780820380516001836020036101000a031916815260200191505b509250505060405180910390f35b6104926004803603604081101561047c57600080fd5b506001600160a01b0381351690602001356112eb565b604080519115158252519081900360200190f35b6103e7600480360360408110156104bc57600080fd5b50803590602001356001600160a01b0316611395565b610492600480360360608110156104e857600080fd5b508035906001600160a01b0360208201351690604001356113f9565b6103e76004803603604081101561051a57600080fd5b50803590602001356001600160a01b03166114ad565b6103e76004803603604081101561054657600080fd5b81359190810190604081016020820135600160201b81111561056757600080fd5b82018360208201111561057957600080fd5b803590602001918460208302840111600160201b8311171561059a57600080fd5b50909250905061150e565b6105d9600480360360608110156105bb57600080fd5b508035906001600160a01b0360208201358116916040013516611561565b60408051918252519081900360200190f35b6105d9611591565b6104926004803603606081101561060957600080fd5b506001600160a01b03813581169160208101359091169060400135611597565b6105d96004803603604081101561063f57600080fd5b50803590602001356001600160a01b03166116d9565b6103e76004803603606081101561066b57600080fd5b6001600160a01b0382351691602081013591810190606081016040820135600160201b81111561069a57600080fd5b8201836020820111156106ac57600080fd5b803590602001918460018302840111600160201b831117156106cd57600080fd5b509092509050611746565b61049261178f565b6103e7600480360360208110156106f657600080fd5b50356001600160a01b031661179e565b6105d96004803603604081101561071c57600080fd5b50803590602001356001600160a01b03166117ca565b61073a6117ef565b6040805160ff9092168252519081900360200190f35b6104926117f4565b6105d9611802565b6103e76004803603606081101561077657600080fd5b813591602081013591810190606081016040820135600160201b81111561079c57600080fd5b8201836020820111156107ae57600080fd5b803590602001918460018302840111600160201b831117156107cf57600080fd5b509092509050611808565b6103e7600480360360808110156107f057600080fd5b8135916001600160a01b036020820135169160408201359190810190608081016060820135600160201b81111561082657600080fd5b82018360208201111561083857600080fd5b803590602001918460018302840111600160201b8311171561085957600080fd5b509092509050611859565b61086c611905565b60408051602080825283518183015283519192839290830191858101910280838360005b838110156108a8578181015183820152602001610890565b505050509050019250505060405180910390f35b6103e761195c565b610492600480360360608110156108da57600080fd5b508035906001600160a01b036020820135811691604001351661197b565b6105d96004803603602081101561090e57600080fd5b50356001600160a01b0316611990565b6103e76119ab565b61086c6004803603602081101561093c57600080fd5b50356001600160a01b0316611a06565b61086c611a72565b61086c6004803603602081101561096a57600080fd5b5035611ad3565b6105d9600480360360c081101561098757600080fd5b8135916001600160a01b03602082013581169260408301359091169160608101359181019060a081016080820135600160201b8111156109c657600080fd5b8201836020820111156109d857600080fd5b803590602001918460018302840111600160201b831117156109f957600080fd5b919390929091602081019035600160201b811115610a1657600080fd5b820183602082011115610a2857600080fd5b803590602001918460018302840111600160201b83111715610a4957600080fd5b509092509050611b3e565b610a5c611d03565b604080516001600160a01b039092168252519081900360200190f35b610492611d12565b6103e760048036036040811015610a9657600080fd5b506001600160a01b0381351690602001351515611d23565b6103e760048036036020811015610ac457600080fd5b50356001600160a01b0316611d42565b6103f1611db1565b6103e760048036036060811015610af257600080fd5b6001600160a01b0382351691602081013591810190606081016040820135600160201b811115610b2157600080fd5b820183602082011115610b3357600080fd5b803590602001918460018302840111600160201b83111715610b5457600080fd5b509092509050611e12565b6103e760048036036020811015610b7557600080fd5b50356001600160a01b0316611e94565b6103e7611ebd565b6103e760048036036080811015610ba357600080fd5b8135916001600160a01b036020820135169160408201359190810190608081016060820135600160201b811115610bd957600080fd5b820183602082011115610beb57600080fd5b803590602001918460018302840111600160201b83111715610c0c57600080fd5b509092509050611ec8565b6105d960048036036020811015610c2d57600080fd5b5035611f5c565b6103e7600480360360a0811015610c4a57600080fd5b6001600160a01b038235169190810190604081016020820135600160201b811115610c7457600080fd5b820183602082011115610c8657600080fd5b803590602001918460018302840111600160201b83111715610ca757600080fd5b919350915080351515906020810135151590604001351515611f6e565b61049260048036036040811015610cda57600080fd5b506001600160a01b038135169060200135611fcc565b61049260048036036020811015610d0657600080fd5b50356001600160a01b0316611ff3565b610d3360048036036020811015610d2c57600080fd5b5035612006565b6040518080602001838152602001828103825284818151815260200191508051906020019080838360005b83811015610d76578181015183820152602001610d5e565b50505050905090810190601f168015610da35780820380516001836020036101000a031916815260200191505b50935050505060405180910390f35b61049260048036036040811015610dc857600080fd5b506001600160a01b03813581169160200135166120e2565b6103e760048036036060811015610df657600080fd5b6001600160a01b0382351691602081013591810190606081016040820135600160201b811115610e2557600080fd5b820183602082011115610e3757600080fd5b803590602001918460018302840111600160201b83111715610e5857600080fd5b5090925090506120f5565b61086c6121eb565b6103e7612241565b6105d960048036036040811015610e8957600080fd5b506001600160a01b038135811691602001351661225f565b6103e760048036036040811015610eb757600080fd5b81359190810190604081016020820135600160201b811115610ed857600080fd5b820183602082011115610eea57600080fd5b803590602001918460018302840111600160201b83111715610f0b57600080fd5b50909250905061228a565b6103e760048036036020811015610f2c57600080fd5b810190602081018135600160201b811115610f4657600080fd5b820183602082011115610f5857600080fd5b803590602001918460208302840111600160201b83111715610f7957600080fd5b5090925090506122cc565b6103e760048036036020811015610f9a57600080fd5b810190602081018135600160201b811115610fb457600080fd5b820183602082011115610fc657600080fd5b803590602001918460208302840111600160201b83111715610fe757600080fd5b509092509050612319565b6103e76004803603608081101561100857600080fd5b6001600160a01b03823581169260208101359091169160408201359190810190608081016060820135600160201b81111561104257600080fd5b82018360208201111561105457600080fd5b803590602001918460018302840111600160201b8311171561107557600080fd5b509092509050612336565b6103e76004803603602081101561109657600080fd5b50356001600160a01b03166123b9565b6105d9600480360360808110156110bc57600080fd5b8135916001600160a01b036020820135169160408201359190810190608081016060820135600160201b8111156110f257600080fd5b82018360208201111561110457600080fd5b803590602001918460018302840111600160201b8311171561112557600080fd5b5090925090506123d3565b6103e76004803603602081101561114657600080fd5b50356001600160a01b0316612431565b3360009081526014602052604090205460ff1661117257600080fd5b6040805160606020601f8601819004028201810183529181018481529091829190869086908190850183828082843760009201829052509385525050506020918201849052868152600a8252604090208251805191926111d792849290910190614359565b5060208201518160010155905050837f89730c201d2df6a4cef4e892559e63e022078b0ee939d11b6ced61fb098b282484848460405180806020018381526020018281038252858582818152602001925080828437600083820152604051601f909101601f1916909201829003965090945050505050a250505050565b60038054604080516020601f60026000196101006001881615020190951694909404938401819004810282018101909252828152606093909290918301828280156112e05780601f106112b5576101008083540402835291602001916112e0565b820191906000526020600020905b8154815290600101906020018083116112c357829003601f168201915b505050505090505b90565b60006001600160a01b03831661132d576040805162461bcd60e51b81526020600482015260026024820152611a9b60f11b604482015290519081900360640190fd5b3360008181526009602090815260408083206001600160a01b03881680855290835292819020869055805186815290519293927f8c5be1e5ebec7d5bd14f71427d1e84f3dd0314c0f7b2291e5b200ac8c7c3b925929181900390910190a35060015b92915050565b33600081815260166020908152604080832086845282528083206001600160a01b0386168085529252808320805460ff1916600117905551909185917f3646a897c70797ecc134b0adc32f471b07bf1d6f451133b0384badab531e3fd69190a45050565b60006001600160a01b03831661143b576040805162461bcd60e51b81526020600482015260026024820152611a9b60f11b604482015290519081900360640190fd5b6000848152601560209081526040808320338085529083528184206001600160a01b0388168086529084529382902086905581518681529151909288927ff061499aa77c2f6f5e25e34955a06623705344a88256cc861a121ec0bce5cfec929081900390910190a45060019392505050565b33600081815260166020908152604080832086845282528083206001600160a01b0386168085529252808320805460ff1916905551909185917f3b287c4f1bab4df949b33bceacef984f544dc5d5479930d00e4ee8c9d8dd96f29190a45050565b611516611d12565b61151f57600080fd5b61155c8383838080602002602001604051908101604052809392919081815260200183836020028082843760009201919091525061249d92505050565b505050565b60009283526015602090815260408085206001600160a01b03948516865282528085209290931684525290205490565b60065490565b60006115a333856125a0565b806115d157506001600160a01b03841660009081526009602090815260408083203384529091529020548211155b611607576040805162461bcd60e51b8152602060048201526002602482015261353360f01b604482015290519081900360640190fd5b6001600160a01b0384166000908152600960209081526040808320338452909152902054821161168e576001600160a01b0384166000908152600960209081526040808320338452909152902054611665908363ffffffff61261f16565b6001600160a01b03851660009081526009602090815260408083203384529091529020556116b3565b6001600160a01b03841660009081526009602090815260408083203384529091528120555b6116cf3385858560405180602001604052806000815250612634565b5060019392505050565b60008281526001602052604081205460ff161561173e5760405160200180807f455243313832305f4143434550545f4d41474943000000000000000000000000815250601401905060405160208183030381529060405280519060200120905061138f565b50600061138f565b6117893333868686868080601f01602080910402602001604051908101604052809392919081815260200183838082843760009201919091525061263492505050565b50505050565b60075462010000900460ff1690565b6117a733611ff3565b806117b557506117b5611d12565b6117be57600080fd5b6117c781612793565b50565b6001600160a01b03166000908152601060209081526040808320938352929052205490565b601290565b600754610100900460ff1690565b60055490565b6117898433338686868080601f0160208091040260200160405190810160405280939291908181526020018383808284376000920182905250604080516020810190915290815292506127db915050565b61186233611ff3565b806118705750611870611d12565b61187957600080fd5b60075462010000900460ff166118bb576040805162461bcd60e51b8152602060048201526002602482015261353560f01b604482015290519081900360640190fd5b6118fe8533868686868080601f01602080910402602001604051908101604052809392919081815260200183838082843760009201919091525061292d92505050565b5050505050565b6060600b8054806020026020016040519081016040528092919081815260200182805480156112e057602002820191906000526020600020905b81548152602001906001019080831161193f575050505050905090565b611964611d12565b61196d57600080fd5b6007805462ff000019169055565b6000611988848484612a4e565b949350505050565b6001600160a01b031660009081526008602052604090205490565b6119b3611d12565b6119bc57600080fd5b600080546040516001600160a01b03909116907f8be0079c531659141344cd1fd0a4f28419497f9722a3daafe3b4186f6b6457e0908390a3600080546001600160a01b0319169055565b6001600160a01b0381166000908152600e6020908152604091829020805483518184028101840190945280845260609392830182828015611a6657602002820191906000526020600020905b815481526020019060010190808311611a52575b50505050509050919050565b606060138054806020026020016040519081016040528092919081815260200182805480156112e057602002820191906000526020600020905b81546001600160a01b03168152600190910190602001808311611aac575050505050905090565b600081815260176020908152604091829020805483518184028101840190945280845260609392830182828015611a6657602002820191906000526020600020905b81546001600160a01b03168152600190910190602001808311611b155750505050509050919050565b6000611b4b89338a612a4e565b80611b80575060008981526015602090815260408083206001600160a01b038c16845282528083203384529091529020548611155b611bb6576040805162461bcd60e51b8152602060048201526002602482015261353360f01b604482015290519081900360640190fd5b60008981526015602090815260408083206001600160a01b038c16845282528083203384529091529020548611611c525760008981526015602090815260408083206001600160a01b038c1684528252808320338452909152902054611c22908763ffffffff61261f16565b60008a81526015602090815260408083206001600160a01b038d1684528252808320338452909152902055611c7e565b60008981526015602090815260408083206001600160a01b038c16845282528083203384529091528120555b611cf689338a8a8a8a8a8080601f01602080910402602001604051908101604052809392919081815260200183838082843760009201919091525050604080516020601f8e018190048102820181019092528c815292508c91508b9081908401838280828437600092019190915250612ad792505050565b9998505050505050505050565b6000546001600160a01b031690565b6000546001600160a01b0316331490565b611d2b611d12565b611d3457600080fd5b611d3e8282612d2a565b5050565b6001600160a01b038116331415611d5857600080fd5b6001600160a01b0381166000818152601260209081526040808320338085529252808320805460ff19166001179055519092917ff4caeb2d6ca8932a215a353d0703c326ec2d81fc68170f320eb2ab49e9df61f991a350565b60048054604080516020601f60026000196101006001881615020190951694909404938401819004810282018101909252828152606093909290918301828280156112e05780601f106112b5576101008083540402835291602001916112e0565b611e1c33856125a0565b611e52576040805162461bcd60e51b815260206004820152600260248201526106a760f31b604482015290519081900360640190fd5b61178933858585858080601f016020809104026020016040519081016040528093929190818152602001838380828437600092019190915250612d9b92505050565b611e9d33611ff3565b80611eab5750611eab611d12565b611eb457600080fd5b6117c781612ee6565b611ec633612793565b565b611ed3853386612a4e565b611f09576040805162461bcd60e51b815260206004820152600260248201526106a760f31b604482015290519081900360640190fd5b6118fe853386866040518060200160405280600081525087878080601f0160208091040260200160405190810160405280939291908181526020018383808284376000920191909152506127db92505050565b6000908152600d602052604090205490565b611f76611d12565b611f7f57600080fd5b611fc48686868080601f016020809104026020016040519081016040528093929190818152602001838380828437600092019190915250889250879150869050612f2e565b505050505050565b6000611fea3333858560405180602001604052806000815250612634565b50600192915050565b600061138f60028363ffffffff612fea16565b6000818152600a6020526040812054606091906002600019610100600184161502019091160461203557600080fd5b6000838152600a602090815260409182902060018082015482548551600293821615610100026000190190911692909204601f810185900485028301850190955284825291939192909184918301828280156120d25780601f106120a7576101008083540402835291602001916120d2565b820191906000526020600020905b8154815290600101906020018083116120b557829003601f168201915b5050505050915091509150915091565b60006120ee83836125a0565b9392505050565b6120fe33611ff3565b8061210c575061210c611d12565b61211557600080fd5b60075462010000900460ff16612157576040805162461bcd60e51b8152602060048201526002602482015261353560f01b604482015290519081900360640190fd5b601154612190576040805162461bcd60e51b8152602060048201526002602482015261353560f01b604482015290519081900360640190fd5b61178960116000815481106121a157fe5b906000526020600020015433868686868080601f01602080910402602001604051908101604052809392919081815260200183838082843760009201919091525061292d92505050565b606060118054806020026020016040519081016040528092919081815260200182805480156112e0576020028201919060005260206000209081548152602001906001019080831161193f575050505050905090565b612249611d12565b61225257600080fd5b6007805461ff0019169055565b6001600160a01b03918216600090815260096020908152604080832093909416825291909152205490565b61155c33338585858080601f016020809104026020016040519081016040528093929190818152602001838380828437600092019190915250612d9b92505050565b6122d4611d12565b6122dd57600080fd5b611d3e82828080602002602001604051908101604052809392919081815260200183836020028082843760009201919091525061301f92505050565b612321611d12565b61232a57600080fd5b61155c601183836143d7565b61234033866125a0565b612376576040805162461bcd60e51b815260206004820152600260248201526106a760f31b604482015290519081900360640190fd5b6118fe3386868686868080601f01602080910402602001604051908101604052809392919081815260200183838082843760009201919091525061263492505050565b6123c1611d12565b6123ca57600080fd5b6117c7816130e8565b6000612427863333888888888080601f016020809104026020016040519081016040528093929190818152602001838380828437600092018290525060408051602081019091529081529250612ad7915050565b9695505050505050565b6001600160a01b03811633141561244757600080fd5b6001600160a01b0381166000818152601260209081526040808320338085529252808320805460ff19169055519092917f50546e66e5f44d728365dc3908c63bc5cfeeab470722c1677e3073a6ac294aa191a350565b60005b600083815260176020526040902054811015612519576000838152601860209081526040808320601790925282208054839190859081106124dd57fe5b6000918252602080832091909101546001600160a01b031683528201929092526040019020805460ff19169115159190911790556001016124a0565b5060005b815181101561258057600083815260186020526040812083516001929085908590811061254657fe5b6020908102919091018101516001600160a01b03168252810191909152604001600020805460ff191691151591909117905560010161251d565b506000828152601760209081526040909120825161155c92840190614412565b6000816001600160a01b0316836001600160a01b031614806125e757506001600160a01b0380841660009081526012602090815260408083209386168352929052205460ff165b806120ee5750600754610100900460ff1680156120ee575050506001600160a01b031660009081526014602052604090205460ff1690565b60008282111561262e57600080fd5b50900390565b60115461266d576040805162461bcd60e51b8152602060048201526002602482015261353560f01b604482015290519081900360640190fd5b816000805b601154811015612751576001600160a01b038716600090815260106020526040812060118054919291849081106126a557fe5b90600052602060002001548152602001908152602001600020549150818311612707576126fd601182815481106126d857fe5b9060005260206000200154898989878960405180602001604052806000815250612ad7565b5060009250612751565b8115612749576127426011828154811061271d57fe5b9060005260206000200154898989868960405180602001604052806000815250612ad7565b5081830392505b600101612672565b50811561278a576040805162461bcd60e51b81526020600482015260026024820152611a9960f11b604482015290519081900360640190fd5b50505050505050565b6127a460028263ffffffff61315616565b6040516001600160a01b038216907fe94479a9f7e1952cc78f2d6baab678adc1b772d936c6583def489e524cb6669290600090a250565b6001600160a01b0384166000908152601060209081526040808320898452909152902054831115612838576040805162461bcd60e51b81526020600482015260026024820152611a9960f11b604482015290519081900360640190fd5b612848868686600087878761319e565b61285886868660008787876133b3565b6128638487856134ee565b61286f85858585613798565b836001600160a01b0316856001600160a01b0316877fce306c3dbc4a497124b5a4f2be8388b41084c1d74663da27ecee1186c00239bf86856040518083815260200180602001828103825283818151815260200191508051906020019080838360005b838110156128ea5781810151838201526020016128d2565b50505050905090810190601f1680156129175780820380516001836020036101000a031916815260200191505b50935050505060405180910390a4505050505050565b61294c85856000868686604051806020016040528060008152506133b3565b612958848484846139fd565b612963838684613c1d565b6129828585600086868660405180602001604052806000815250613d67565b826001600160a01b0316846001600160a01b0316867ff0ded82afbb1bb3ff3fc48cb2a26584aa84e4af0bf309c804ecdb94d0f6a98bb8585604051808381526020018060200180602001838103835284818151815260200191508051906020019080838360005b83811015612a015781810151838201526020016129e9565b50505050905090810190601f168015612a2e5780820380516001836020036101000a031916815260200191505b509283039052506000815260408051918290030192509050a45050505050565b6000612a5a83836125a0565b80612a9257506001600160a01b03808316600090815260166020908152604080832088845282528083209387168352929052205460ff165b806119885750600754610100900460ff1680156119885750505060009182526018602090815260408084206001600160a01b0393909316845291905290205460ff1690565b6001600160a01b03851660009081526010602090815260408083208a8452909152812054841115612b34576040805162461bcd60e51b81526020600482015260026024820152611a9960f11b604482015290519081900360640190fd5b8151889015801590612b4857506040845110155b15612b5a57612b578985613ea2565b90505b612b698989898989898961319e565b612b78898989898989896133b3565b612b83878a876134ee565b612b8e878787613ece565b612b99868287613c1d565b612ba881898989898989613d67565b856001600160a01b0316876001600160a01b03168a7fff4e9a26af4eb73b8bacfaa4abd4fea03d9448e7b912dc5ff4019048875aa2d48b89898960405180856001600160a01b03166001600160a01b031681526020018481526020018060200180602001838103835285818151815260200191508051906020019080838360005b83811015612c41578181015183820152602001612c29565b50505050905090810190601f168015612c6e5780820380516001836020036101000a031916815260200191505b50838103825284518152845160209182019186019080838360005b83811015612ca1578181015183820152602001612c89565b50505050905090810190601f168015612cce5780820380516001836020036101000a031916815260200191505b50965050505050505060405180910390a4888114612d1e5760408051868152905182918b917f67c8ba31d2dd11f1384577b3405b04ed91eed1231e408432ad2458cab37b2fa19181900360200190a35b98975050505050505050565b612d566040518060400160405280600a81526020016922a92199182a37b5b2b760b11b81525083614096565b612d846040518060400160405280600c81526020016b22a921989a18182a37b5b2b760a11b81525083614096565b8015611d3e576007805460ff191660011790555050565b601154612dd4576040805162461bcd60e51b8152602060048201526002602482015261353560f01b604482015290519081900360640190fd5b816000805b601154811015612ead576001600160a01b03861660009081526010602052604081206011805491929184908110612e0c57fe5b90600052602060002001548152602001908152602001600020549150818311612e6c57612e6360118281548110612e3f57fe5b906000526020600020015488888688604051806020016040528060008152506127db565b60009250612ead565b612ea060118281548110612e7c57fe5b906000526020600020015488888588604051806020016040528060008152506127db565b8183039250600101612dd9565b508115611fc4576040805162461bcd60e51b81526020600482015260026024820152611a9960f11b604482015290519081900360640190fd5b612ef760028263ffffffff61418016565b6040516001600160a01b038216907f6ae172837ea30b801fbfcdd4108aa1d5bf8ff775444fd70256b44e6bf3dfc3f690600090a250565b6000612f3a30866141cc565b90506001600160a01b03811615801590612f515750835b15612f8e57612f5f81611ff3565b15612f6d57612f6d81612793565b6001600160a01b0381166000908152601460205260409020805460ff191690555b612f988587614096565b828015612fab5750612fa986611ff3565b155b15612fb957612fb986612ee6565b8115611fc4576001600160a01b0386166000908152601460205260409020805460ff19166001179055505050505050565b60006001600160a01b038216612fff57600080fd5b506001600160a01b03166000908152602091909152604090205460ff1690565b60005b60135481101561307b576000601460006013848154811061303f57fe5b6000918252602080832091909101546001600160a01b031683528201929092526040019020805460ff1916911515919091179055600101613022565b5060005b81518110156130d45760016014600084848151811061309a57fe5b6020908102919091018101516001600160a01b03168252810191909152604001600020805460ff191691151591909117905560010161307f565b508051611d3e906013906020840190614412565b6001600160a01b0381166130fb57600080fd5b600080546040516001600160a01b03808516939216917f8be0079c531659141344cd1fd0a4f28419497f9722a3daafe3b4186f6b6457e091a3600080546001600160a01b0319166001600160a01b0392909216919091179055565b6001600160a01b03811661316957600080fd5b6131738282612fea565b61317c57600080fd5b6001600160a01b0316600090815260209190915260409020805460ff19169055565b60006131df866040518060400160405280601381526020017f45524331343030546f6b656e7353656e646572000000000000000000000000008152506141cc565b90506001600160a01b038116156133a957806001600160a01b0316634e755a546000368b8b8b8b8b8b8b6040518a63ffffffff1660e01b81526004018080602001898152602001886001600160a01b03166001600160a01b03168152602001876001600160a01b03166001600160a01b03168152602001866001600160a01b03166001600160a01b03168152602001858152602001806020018060200184810384528d8d828181526020019250808284376000838201819052601f909101601f19169092018681038552885181528851602091820193918a019250908190849084905b838110156132da5781810151838201526020016132c2565b50505050905090810190601f1680156133075780820380516001836020036101000a031916815260200191505b50848103825285518152855160209182019187019080838360005b8381101561333a578181015183820152602001613322565b50505050905090810190601f1680156133675780820380516001836020036101000a031916815260200191505b509c50505050505050505050505050600060405180830381600087803b15801561339057600080fd5b505af11580156133a4573d6000803e3d6000fd5b505050505b5050505050505050565b60006133f4306040518060400160405280601681526020017f45524331343030546f6b656e7356616c696461746f72000000000000000000008152506141cc565b90506001600160a01b038116156133a957806001600160a01b031663520faa766000368b8b8b8b8b8b8b6040518a63ffffffff1660e01b81526004018080602001898152602001886001600160a01b03166001600160a01b03168152602001876001600160a01b03166001600160a01b03168152602001866001600160a01b03166001600160a01b03168152602001858152602001806020018060200184810384528d8d828181526020019250808284376000838201819052601f909101601f19169092018681038552885181528851602091820193918a01925090819084908490838110156132da5781810151838201526020016132c2565b6001600160a01b0383166000908152601060209081526040808320858452909152902054613522908263ffffffff61261f16565b6001600160a01b0384166000908152601060209081526040808320868452825280832093909355600d9052205461355f908263ffffffff61261f16565b6000838152600d60205260409020819055613634576000828152600c6020526040902054806135ba576040805162461bcd60e51b8152602060048201526002602482015261035360f41b604482015290519081900360640190fd5b600b80546000919060001981019081106135d057fe5b9060005260206000200154905080600b60018403815481106135ee57fe5b6000918252602080832090910192909255828152600c90915260409020829055600b805460001901906136219082614473565b5050506000828152600c60205260408120555b6001600160a01b038316600090815260106020908152604080832085845290915290205461155c576001600160a01b0383166000908152600f60209081526040808320858452909152902054806136b7576040805162461bcd60e51b8152602060048201526002602482015261035360f41b604482015290519081900360640190fd5b6001600160a01b0384166000908152600e60205260408120805460001981019081106136df57fe5b9060005260206000200154905080600e6000876001600160a01b03166001600160a01b03168152602001908152602001600020600184038154811061372057fe5b60009182526020808320909101929092556001600160a01b038716808252600f835260408083208584528452808320869055908252600e909252208054600019019061376c9082614473565b5050506001600160a01b0383166000908152600f60209081526040808320858452909152812055505050565b60075460ff16156137d5576040805162461bcd60e51b81526020600482015260026024820152610d4d60f21b604482015290519081900360640190fd5b6137de826142cf565b613814576040805162461bcd60e51b8152602060048201526002602482015261035360f41b604482015290519081900360640190fd5b6001600160a01b038316613854576040805162461bcd60e51b81526020600482015260026024820152611a9b60f11b604482015290519081900360640190fd5b6001600160a01b0383166000908152600860205260409020548211156138a6576040805162461bcd60e51b81526020600482015260026024820152611a9960f11b604482015290519081900360640190fd5b6001600160a01b0383166000908152600860205260409020546138cf908363ffffffff61261f16565b6001600160a01b0384166000908152600860205260409020556006546138fb908363ffffffff61261f16565b600681905550826001600160a01b0316846001600160a01b03167fb7d0d6b60740753e9f16692a2f479472a1385aec2420fa43225b02f2ffa1afe784846040518083815260200180602001828103825283818151815260200191508051906020019080838360005b8381101561397b578181015183820152602001613963565b50505050905090810190601f1680156139a85780820380516001836020036101000a031916815260200191505b50935050505060405180910390a36040805183815290516000916001600160a01b038616917fddf252ad1be2c89b69c2b068fc378daa952ba7f163c4a11628f55a4df523b3ef9181900360200190a350505050565b60075460ff1615613a3a576040805162461bcd60e51b81526020600482015260026024820152610d4d60f21b604482015290519081900360640190fd5b613a43826142cf565b613a79576040805162461bcd60e51b8152602060048201526002602482015261035360f41b604482015290519081900360640190fd5b6001600160a01b038316613ab9576040805162461bcd60e51b8152602060048201526002602482015261353760f01b604482015290519081900360640190fd5b600654613acc908363ffffffff6142fe16565b6006556001600160a01b038316600090815260086020526040902054613af8908363ffffffff6142fe16565b60086000856001600160a01b03166001600160a01b0316815260200190815260200160002081905550826001600160a01b0316846001600160a01b03167f0e9905d62635f049c2f4e11678ebf9dc3d1f8c4a653e290759b772e47ba00d0084846040518083815260200180602001828103825283818151815260200191508051906020019080838360005b83811015613b9b578181015183820152602001613b83565b50505050905090810190601f168015613bc85780820380516001836020036101000a031916815260200191505b50935050505060405180910390a36040805183815290516001600160a01b038516916000917fddf252ad1be2c89b69c2b068fc378daa952ba7f163c4a11628f55a4df523b3ef9181900360200190a350505050565b801561155c576001600160a01b0383166000908152600f60209081526040808320858452909152902054613c8f576001600160a01b0383166000818152600e602090815260408083208054600181018255818552838520018790559383529254600f8252838320868452909152919020555b6001600160a01b0383166000908152601060209081526040808320858452909152902054613cc3908263ffffffff6142fe16565b6001600160a01b0384166000908152601060209081526040808320868452825280832093909355600c90522054613d3457600b80546001810182557f0175b7a638427703f0dbe7bb9bbf987a2551717b34e79f33b5b1008d1fa01db901839055546000838152600c60205260409020555b6000828152600d6020526040902054613d53908263ffffffff6142fe16565b6000838152600d6020526040902055505050565b6000613da8856040518060400160405280601681526020017f45524331343030546f6b656e73526563697069656e74000000000000000000008152506141cc565b90506001600160a01b038116156133a957806001600160a01b031663f464b5766000368b8b8b8b8b8b8b6040518a63ffffffff1660e01b81526004018080602001898152602001886001600160a01b03166001600160a01b03168152602001876001600160a01b03166001600160a01b03168152602001866001600160a01b03166001600160a01b03168152602001858152602001806020018060200184810384528d8d828181526020019250808284376000838201819052601f909101601f19169092018681038552885181528851602091820193918a01925090819084908490838110156132da5781810151838201526020016132c2565b60208101516000906000199080821415613ec25760408401519250613ec6565b8492505b505092915050565b60075460ff1615613f0b576040805162461bcd60e51b81526020600482015260026024820152610d4d60f21b604482015290519081900360640190fd5b613f14816142cf565b613f4a576040805162461bcd60e51b8152602060048201526002602482015261035360f41b604482015290519081900360640190fd5b6001600160a01b038216613f8a576040805162461bcd60e51b8152602060048201526002602482015261353760f01b604482015290519081900360640190fd5b6001600160a01b038316600090815260086020526040902054811115613fdc576040805162461bcd60e51b81526020600482015260026024820152611a9960f11b604482015290519081900360640190fd5b6001600160a01b038316600090815260086020526040902054614005908263ffffffff61261f16565b6001600160a01b03808516600090815260086020526040808220939093559084168152205461403a908263ffffffff6142fe16565b6001600160a01b0380841660008181526008602090815260409182902094909455805185815290519193928716927fddf252ad1be2c89b69c2b068fc378daa952ba7f163c4a11628f55a4df523b3ef92918290030190a3505050565b6000826040516020018082805190602001908083835b602083106140cb5780518252601f1990920191602091820191016140ac565b51815160209384036101000a60001901801990921691161790526040805192909401828103601f19018352808552825192909101919091206329965a1d60e01b8252306004830152602482018190526001600160a01b03881660448301529251929550731820a4b7618bde71dce8cdc73aab6c95905fad2494506329965a1d9350606480820193600093509182900301818387803b15801561416c57600080fd5b505af115801561278a573d6000803e3d6000fd5b6001600160a01b03811661419357600080fd5b61419d8282612fea565b156141a757600080fd5b6001600160a01b0316600090815260209190915260409020805460ff19166001179055565b600080826040516020018082805190602001908083835b602083106142025780518252601f1990920191602091820191016141e3565b51815160209384036101000a60001901801990921691161790526040805192909401828103601f1901835280855282519282019290922063555ddc6560e11b83526001600160a01b038b166004840152602483018190529351939650731820a4b7618bde71dce8cdc73aab6c95905fad24955063aabbb8ca94506044808301949193509091829003018186803b15801561429b57600080fd5b505afa1580156142af573d6000803e3d6000fd5b505050506040513d60208110156142c557600080fd5b5051949350505050565b60055460009082906142f7906142eb838263ffffffff61431016565b9063ffffffff61433216565b1492915050565b6000828201838110156120ee57600080fd5b600080821161431e57600080fd5b600082848161432957fe5b04949350505050565b6000826143415750600061138f565b8282028284828161434e57fe5b04146120ee57600080fd5b828054600181600116156101000203166002900490600052602060002090601f016020900481019282601f1061439a57805160ff19168380011785556143c7565b828001600101855582156143c7579182015b828111156143c75782518255916020019190600101906143ac565b506143d3929150614493565b5090565b8280548282559060005260206000209081019282156143c7579160200282015b828111156143c75782358255916020019190600101906143f7565b828054828255906000526020600020908101928215614467579160200282015b8281111561446757825182546001600160a01b0319166001600160a01b03909116178255602090920191600190910190614432565b506143d39291506144ad565b81548183558181111561155c5760008381526020902061155c9181019083015b6112e891905b808211156143d35760008155600101614499565b6112e891905b808211156143d35780546001600160a01b03191681556001016144b3565b6001806000836040516020018082805190602001908083835b602083106145095780518252601f1990920191602091820191016144ea565b6001836020036101000a03801982511681845116808217855250505050505090500191505060405160208183030381529060405280519060200120815260200190815260200160002060006101000a81548160ff0219169083151502179055505056fea265627a7a72315820d66729a169bc424616c01389eb9d49cfd4a264ee9652b11d9af2ee9cc40844ad64736f6c63430005100032",
    "linkReferences": {},
    "deployedLinkReferences": {}
}