{
  "_format": "hh-sol-artifact-1",
  "contractName": "Vault",
  "sourceName": "contracts/extensions/userExtensions/Vault.sol",
  "abi": [
    {
      "inputs": [],
      "payable": false,
      "stateMutability": "nonpayable",
      "type": "constructor"
    },
    {
      "constant": true,
      "inputs": [
        {
          "internalType": "address",
          "name": "owner",
          "type": "address"
        }
      ],
      "name": "balanceOfCToken",
      "outputs": [
        {
          "internalType": "uint256",
          "name": "",
          "type": "uint256"
        }
      ],
      "payable": false,
      "stateMutability": "view",
      "type": "function"
    },
    {
      "constant": true,
      "inputs": [
        {
          "internalType": "address",
          "name": "owner",
          "type": "address"
        }
      ],
      "name": "balanceOfPToken",
      "outputs": [
        {
          "internalType": "uint256",
          "name": "",
          "type": "uint256"
        }
      ],
      "payable": false,
      "stateMutability": "view",
      "type": "function"
    },
    {
      "constant": true,
      "inputs": [
        {
          "internalType": "bytes32",
          "name": "interfaceHash",
          "type": "bytes32"
        },
        {
          "internalType": "address",
          "name": "",
          "type": "address"
        }
      ],
      "name": "canImplementInterfaceForAddress",
      "outputs": [
        {
          "internalType": "bytes32",
          "name": "",
          "type": "bytes32"
        }
      ],
      "payable": false,
      "stateMutability": "view",
      "type": "function"
    },
    {
      "constant": true,
      "inputs": [
        {
          "internalType": "bytes",
          "name": "payload",
          "type": "bytes"
        },
        {
          "internalType": "bytes32",
          "name": "partition",
          "type": "bytes32"
        },
        {
          "internalType": "address",
          "name": "operator",
          "type": "address"
        },
        {
          "internalType": "address",
          "name": "from",
          "type": "address"
        },
        {
          "internalType": "address",
          "name": "to",
          "type": "address"
        },
        {
          "internalType": "uint256",
          "name": "value",
          "type": "uint256"
        },
        {
          "internalType": "bytes",
          "name": "data",
          "type": "bytes"
        },
        {
          "internalType": "bytes",
          "name": "operatorData",
          "type": "bytes"
        }
      ],
      "name": "canReceive",
      "outputs": [
        {
          "internalType": "bool",
          "name": "",
          "type": "bool"
        }
      ],
      "payable": false,
      "stateMutability": "view",
      "type": "function"
    },
    {
      "constant": false,
      "inputs": [
        {
          "internalType": "address",
          "name": "tokenReceiver",
          "type": "address"
        }
      ],
      "name": "closeCDP",
      "outputs": [
        {
          "internalType": "bool",
          "name": "",
          "type": "bool"
        }
      ],
      "payable": false,
      "stateMutability": "nonpayable",
      "type": "function"
    },
    {
      "constant": false,
      "inputs": [
        {
          "internalType": "address",
          "name": "tokenReceiver",
          "type": "address"
        }
      ],
      "name": "closeCDPWithBurn",
      "outputs": [
        {
          "internalType": "bool",
          "name": "",
          "type": "bool"
        }
      ],
      "payable": false,
      "stateMutability": "nonpayable",
      "type": "function"
    },
    {
      "constant": true,
      "inputs": [],
      "name": "closed",
      "outputs": [
        {
          "internalType": "bool",
          "name": "",
          "type": "bool"
        }
      ],
      "payable": false,
      "stateMutability": "view",
      "type": "function"
    },
    {
      "constant": true,
      "inputs": [],
      "name": "getCToken",
      "outputs": [
        {
          "internalType": "address",
          "name": "",
          "type": "address"
        }
      ],
      "payable": false,
      "stateMutability": "view",
      "type": "function"
    },
    {
      "constant": true,
      "inputs": [],
      "name": "getErc1400ContractAddress",
      "outputs": [
        {
          "internalType": "address",
          "name": "",
          "type": "address"
        }
      ],
      "payable": false,
      "stateMutability": "view",
      "type": "function"
    },
    {
      "constant": true,
      "inputs": [],
      "name": "getPToken",
      "outputs": [
        {
          "internalType": "address",
          "name": "",
          "type": "address"
        }
      ],
      "payable": false,
      "stateMutability": "view",
      "type": "function"
    },
    {
      "constant": false,
      "inputs": [
        {
          "internalType": "bytes",
          "name": "payload",
          "type": "bytes"
        },
        {
          "internalType": "bytes32",
          "name": "partition",
          "type": "bytes32"
        },
        {
          "internalType": "address",
          "name": "operator",
          "type": "address"
        },
        {
          "internalType": "address",
          "name": "from",
          "type": "address"
        },
        {
          "internalType": "address",
          "name": "to",
          "type": "address"
        },
        {
          "internalType": "uint256",
          "name": "value",
          "type": "uint256"
        },
        {
          "internalType": "bytes",
          "name": "data",
          "type": "bytes"
        },
        {
          "internalType": "bytes",
          "name": "operatorData",
          "type": "bytes"
        }
      ],
      "name": "tokensReceived",
      "outputs": [],
      "payable": false,
      "stateMutability": "nonpayable",
      "type": "function"
    }
  ],
  "bytecode": "0x60806040523480156200001157600080fd5b506200005d6040518060400160405280601681526020017f45524331343030546f6b656e73526563697069656e74000000000000000000008152506200026760201b620011831760201c565b620000976040518060400160405280600c81526020016b115490cc4d0c0c15985d5b1d60a21b8152506200026760201b620011831760201c565b620000e36040518060400160405280601681526020017f45524331343030546f6b656e73526563697069656e7400000000000000000000815250306200030460201b6200121e1760201c565b6012604051620000f390620004f0565b60ff90911660408083019190915260608083526006908301526531aa37b5b2b760d11b608083015260a0602083018190526004908301526363544f4b60e01b60c0830152519081900360e001906000f08015801562000156573d6000803e3d6000fd5b50600180546001600160a01b0319166001600160a01b03929092169190911790556040516012906200018890620004f0565b60ff909116604080830191909152606080835260069083015265382a37b5b2b760d11b608083015260a0602083018190526004908301526370544f4b60e01b60c0830152519081900360e001906000f080158015620001eb573d6000803e3d6000fd5b50600280546001600160a01b0319166001600160a01b03928316179081905560408051808201909152601681527f63546f6b656e3a2025732c2070546f6b656e3a2025730000000000000000000060208083019190915260015462000261949293908316921690620003fb811b62000fb417901c565b620004fe565b6001600080836040516020018082805190602001908083835b60208310620002a15780518252601f19909201916020918201910162000280565b6001836020036101000a03801982511681845116808217855250505050505090500191505060405160208183030381529060405280519060200120815260200190815260200160002060006101000a81548160ff02191690831515021790555050565b6000826040516020018082805190602001908083835b602083106200033b5780518252601f1990920191602091820191016200031a565b51815160209384036101000a60001901801990921691161790526040805192909401828103601f19018352808552825192909101919091206329965a1d60e01b8252306004830152602482018190526001600160a01b03881660448301529251929550731820a4b7618bde71dce8cdc73aab6c95905fad2494506329965a1d9350606480820193600093509182900301818387803b158015620003dd57600080fd5b505af1158015620003f2573d6000803e3d6000fd5b50505050505050565b6040516001600160a01b03808416604483015282166064820152606060248201908152845160848301528451620004ca92869286928692829160a490910190602087019080838360005b838110156200045f57818101518382015260200162000445565b50505050905090810190601f1680156200048d5780820380516001836020036101000a031916815260200191505b5060408051601f198184030181529190526020810180516001600160e01b039081166307e763af60e51b17909152909550620004cf169350505050565b505050565b80516a636f6e736f6c652e6c6f67602083016000808483855afa5050505050565b6117ca806200187783390190565b611369806200050e6000396000f3fe608060405234801561001057600080fd5b50600436106100b95760003560e01c8063670ffbd411610081578063efb0cdcb1161005b578063efb0cdcb146101dc578063f464b576146101e4578063f55886df14610327576100b9565b8063670ffbd41461018a5780637aeec947146101ae578063ec6c350c146101d4576100b9565b806317f1afe0146100be578063192f0c68146100f8578063249cb3fa1461011e57806337132c121461015c578063597e1fb514610182575b600080fd5b6100e4600480360360208110156100d457600080fd5b50356001600160a01b0316610468565b604080519115158252519081900360200190f35b6100e46004803603602081101561010e57600080fd5b50356001600160a01b031661047b565b61014a6004803603604081101561013457600080fd5b50803590602001356001600160a01b0316610646565b60408051918252519081900360200190f35b61014a6004803603602081101561017257600080fd5b50356001600160a01b03166106b5565b6100e4610738565b610192610741565b604080516001600160a01b039092168252519081900360200190f35b61014a600480360360208110156101c457600080fd5b50356001600160a01b0316610750565b6101926107a1565b6101926107b0565b61032560048036036101008110156101fb57600080fd5b81019060208101813564010000000081111561021657600080fd5b82018360208201111561022857600080fd5b8035906020019184600183028401116401000000008311171561024a57600080fd5b919390928235926001600160a01b03602082013581169360408301358216936060840135909216926080810135929060c081019060a0013564010000000081111561029457600080fd5b8201836020820111156102a657600080fd5b803590602001918460018302840111640100000000831117156102c857600080fd5b9193909290916020810190356401000000008111156102e657600080fd5b8201836020820111156102f857600080fd5b8035906020019184600183028401116401000000008311171561031a57600080fd5b5090925090506107bf565b005b6100e4600480360361010081101561033e57600080fd5b81019060208101813564010000000081111561035957600080fd5b82018360208201111561036b57600080fd5b8035906020019184600183028401116401000000008311171561038d57600080fd5b919390928235926001600160a01b03602082013581169360408301358216936060840135909216926080810135929060c081019060a001356401000000008111156103d757600080fd5b8201836020820111156103e957600080fd5b8035906020019184600183028401116401000000008311171561040b57600080fd5b91939092909160208101903564010000000081111561042957600080fd5b82018360208201111561043b57600080fd5b8035906020019184600183028401116401000000008311171561045d57600080fd5b509092509050610ce9565b600061047382610d68565b506001919050565b600154604080516318160ddd60e01b815290516000926001600160a01b0316916379cc679091339184916318160ddd91600480820192602092909190829003018186803b1580156104cb57600080fd5b505afa1580156104df573d6000803e3d6000fd5b505050506040513d60208110156104f557600080fd5b5051604080516001600160e01b031960e086901b1681526001600160a01b039093166004840152602483019190915251604480830192600092919082900301818387803b15801561054557600080fd5b505af1158015610559573d6000803e3d6000fd5b5050600254604080516318160ddd60e01b815290516001600160a01b0390921693506379cc67909250339184916318160ddd916004808301926020929190829003018186803b1580156105ab57600080fd5b505afa1580156105bf573d6000803e3d6000fd5b505050506040513d60208110156105d557600080fd5b5051604080516001600160e01b031960e086901b1681526001600160a01b039093166004840152602483019190915251604480830192600092919082900301818387803b15801561062557600080fd5b505af1158015610639573d6000803e3d6000fd5b5050505061047382610d68565b60008281526020819052604081205460ff16156106ab5760405160200180807f455243313832305f4143434550545f4d4147494300000000000000000000000081525060140190506040516020818303038152906040528051906020012090506106af565b5060005b92915050565b600254604080516370a0823160e01b81526001600160a01b038481166004830152915160009392909216916370a0823191602480820192602092909190829003018186803b15801561070657600080fd5b505afa15801561071a573d6000803e3d6000fd5b505050506040513d602081101561073057600080fd5b505192915050565b60035460021490565b6006546001600160a01b031690565b600154604080516370a0823160e01b81526001600160a01b038481166004830152915160009392909216916370a0823191602480820192602092909190829003018186803b15801561070657600080fd5b6001546001600160a01b031690565b6002546001600160a01b031690565b6107e2604051806060016040528060238152602001611312602391398888610fb4565b60016003556006805473ffffffffffffffffffffffffffffffffffffffff19163317905560058990556004859055604080516020601f86018190048102820181019092528481526000916108519190879087908190840183828082843760009201919091525061107e92505050565b9050600061089486868080601f01602080910402602001604051908101604052809392919081815260200183838082843760009201919091525061108592505050565b905060006108d787878080601f01602080910402602001604051908101604052809392919081815260200183838082843760009201919091525061108c92505050565b90507f4341505f5441424c455f4344505f464c41470000000000000000000000000000831415610bd4576001600160a01b038216156109e557600254604080516020601f8a018190048102820181019092528881526001600160a01b03909216916340c10f19918591610964918c908c908190840183828082843760009201919091525061109392505050565b6040518363ffffffff1660e01b815260040180836001600160a01b03166001600160a01b0316815260200182815260200192505050602060405180830381600087803b1580156109b357600080fd5b505af11580156109c7573d6000803e3d6000fd5b505050506040513d60208110156109dd57600080fd5b50610ab59050565b600254604080516020601f8a018190048102820181019092528881526001600160a01b03909216916340c10f19918d91610a39918c908c908190840183828082843760009201919091525061109392505050565b6040518363ffffffff1660e01b815260040180836001600160a01b03166001600160a01b0316815260200182815260200192505050602060405180830381600087803b158015610a8857600080fd5b505af1158015610a9c573d6000803e3d6000fd5b505050506040513d6020811015610ab257600080fd5b50505b6001600160a01b03811615610b4c57600154604080516340c10f1960e01b81526001600160a01b038481166004830152602482018c9052915191909216916340c10f199160448083019260209291908290030181600087803b158015610b1a57600080fd5b505af1158015610b2e573d6000803e3d6000fd5b505050506040513d6020811015610b4457600080fd5b50610bcf9050565b600154604080516340c10f1960e01b81526001600160a01b038d81166004830152602482018c9052915191909216916340c10f199160448083019260209291908290030181600087803b158015610ba257600080fd5b505af1158015610bb6573d6000803e3d6000fd5b505050506040513d6020811015610bcc57600080fd5b50505b610cd9565b600254604080516340c10f1960e01b81526001600160a01b038d81166004830152602482018c9052915191909216916340c10f199160448083019260209291908290030181600087803b158015610c2a57600080fd5b505af1158015610c3e573d6000803e3d6000fd5b505050506040513d6020811015610c5457600080fd5b5050600154604080516340c10f1960e01b81526001600160a01b038d81166004830152602482018c9052915191909216916340c10f199160448083019260209291908290030181600087803b158015610cac57600080fd5b505af1158015610cc0573d6000803e3d6000fd5b505050506040513d6020811015610cd657600080fd5b50505b5050505050505050505050505050565b6000610d166040518060400160405280600a81526020016963616e5265636569766560b01b81525061109a565b610d5888888888888080601f01602080910402602001604051908101604052809392919081815260200183838082843760009201919091525061114392505050565b9c9b505050505050505050505050565b600160009054906101000a90046001600160a01b03166001600160a01b03166318160ddd6040518163ffffffff1660e01b815260040160206040518083038186803b158015610db657600080fd5b505afa158015610dca573d6000803e3d6000fd5b505050506040513d6020811015610de057600080fd5b505115610e34576040805162461bcd60e51b815260206004820152601d60248201527f63546f6b656e206d7573742062652030207768656e20636c6f73696e67000000604482015290519081900360640190fd5b600260009054906101000a90046001600160a01b03166001600160a01b03166318160ddd6040518163ffffffff1660e01b815260040160206040518083038186803b158015610e8257600080fd5b505afa158015610e96573d6000803e3d6000fd5b505050506040513d6020811015610eac57600080fd5b505115610f00576040805162461bcd60e51b815260206004820152601d60248201527f70546f6b656e206d7573742062652030207768656e20636c6f73696e67000000604482015290519081900360640190fd5b600654600554600480546040805163f3d490db60e01b8152808401949094526001600160a01b0386811660248601526044850192909252608060648501526084840192909252633078313160e01b60a4840152905192169163f3d490db9160c4808201926020929091908290030181600087803b158015610f8057600080fd5b505af1158015610f94573d6000803e3d6000fd5b505050506040513d6020811015610faa57600080fd5b5050600260035550565b6040516001600160a01b0380841660448301528216606482015260606024820190815284516084830152845161107992869286928692829160a490910190602087019080838360005b83811015611015578181015183820152602001610ffd565b50505050905090810190601f1680156110425780820380516001836020036101000a031916815260200191505b5060408051601f198184030181529190526020810180516001600160e01b03166307e763af60e51b17905294506111629350505050565b505050565b6020015190565b6060015190565b6080015190565b6040015190565b611140816040516024018080602001828103825283818151815260200191508051906020019080838360005b838110156110de5781810151838201526020016110c6565b50505050905090810190601f16801561110b5780820380516001836020036101000a031916815260200191505b5060408051601f198184030181529190526020810180516001600160e01b031663104c13eb60e21b1790529250611162915050565b50565b600080600354146111565750600061115a565b5060015b949350505050565b80516a636f6e736f6c652e6c6f67602083016000808483855afa5050505050565b6001600080836040516020018082805190602001908083835b602083106111bb5780518252601f19909201916020918201910161119c565b6001836020036101000a03801982511681845116808217855250505050505090500191505060405160208183030381529060405280519060200120815260200190815260200160002060006101000a81548160ff02191690831515021790555050565b6000826040516020018082805190602001908083835b602083106112535780518252601f199092019160209182019101611234565b51815160209384036101000a60001901801990921691161790526040805192909401828103601f19018352808552825192909101919091206329965a1d60e01b8252306004830152602482018190526001600160a01b03881660448301529251929550731820a4b7618bde71dce8cdc73aab6c95905fad2494506329965a1d9350606480820193600093509182900301818387803b1580156112f457600080fd5b505af1158015611308573d6000803e3d6000fd5b5050505050505056fe746f6b656e7352656365697665642063616c6c65642066726f6d20257320746f202573a265627a7a72315820ef025bef80bf0918c1aca284b83a8190e9fbb4b5846f392c23aefe42cb15921c64736f6c6343000510003260806040523480156200001157600080fd5b50604051620017ca380380620017ca833981810160405260608110156200003757600080fd5b81019080805160405193929190846401000000008211156200005857600080fd5b9083019060208201858111156200006e57600080fd5b82516401000000008111828201881017156200008957600080fd5b82525081516020918201929091019080838360005b83811015620000b85781810151838201526020016200009e565b50505050905090810190601f168015620000e65780820380516001836020036101000a031916815260200191505b50604052602001805160405193929190846401000000008211156200010a57600080fd5b9083019060208201858111156200012057600080fd5b82516401000000008111828201881017156200013b57600080fd5b82525081516020918201929091019080838360005b838110156200016a57818101518382015260200162000150565b50505050905090810190601f168015620001985780820380516001836020036101000a031916815260200191505b50604081905260209190910151600080546001600160a01b0319163317808255919450869350859285926001600160a01b031691907f8be0079c531659141344cd1fd0a4f28419497f9722a3daafe3b4186f6b6457e0908290a362000206336001600160e01b03620002af16565b6200021a336001600160e01b036200030116565b6006805460ff1916905582516200023990600790602086019062000480565b5081516200024f90600890602085019062000480565b5080600960006101000a81548160ff021916908360ff160217905550505050620002a66040518060400160405280600a81526020016922a92199182a37b5b2b760b11b8152506200035360201b620011c41760201c565b50505062000525565b620002ca816004620003f160201b620011781790919060201c565b6040516001600160a01b038216907f6ae172837ea30b801fbfcdd4108aa1d5bf8ff775444fd70256b44e6bf3dfc3f690600090a250565b6200031c816005620003f160201b620011781790919060201c565b6040516001600160a01b038216907f6719d08c1888103bea251a4ed56406bd0c3e69723c8a1686e017e7bbe159b6f890600090a250565b6001600a6000836040516020018082805190602001908083835b602083106200038e5780518252601f1990920191602091820191016200036d565b6001836020036101000a03801982511681845116808217855250505050505090500191505060405160208183030381529060405280519060200120815260200190815260200160002060006101000a81548160ff02191690831515021790555050565b6001600160a01b0381166200040557600080fd5b6200041a82826001600160e01b036200044a16565b156200042557600080fd5b6001600160a01b0316600090815260209190915260409020805460ff19166001179055565b60006001600160a01b0382166200046057600080fd5b506001600160a01b03166000908152602091909152604090205460ff1690565b828054600181600116156101000203166002900490600052602060002090601f016020900481019282601f10620004c357805160ff1916838001178555620004f3565b82800160010185558215620004f3579182015b82811115620004f3578251825591602001919060010190620004d6565b506200050192915062000505565b5090565b6200052291905b808211156200050157600081556001016200050c565b90565b61129580620005356000396000f3fe608060405234801561001057600080fd5b50600436106101c45760003560e01c8063715018a6116100f9578063983b2d5611610097578063a9059cbb11610071578063a9059cbb146104eb578063aa271e1a14610517578063dd62ed3e1461053d578063f2fde38b1461056b576101c4565b8063983b2d561461049157806398650275146104b7578063a457c2d7146104bf576101c4565b80638456cb59116100d35780638456cb59146104555780638da5cb5b1461045d5780638f32d59b1461048157806395d89b4114610489576101c4565b8063715018a6146103fb57806379cc67901461040357806382dc1ec41461042f576101c4565b80633f4ba83a1161016657806346fbf68e1161014057806346fbf68e1461039f5780635c975abb146103c55780636ef8d66d146103cd57806370a08231146103d5576101c4565b80633f4ba83a1461034c57806340c10f191461035657806342966c6814610382576101c4565b806323b872dd116101a257806323b872dd146102a0578063249cb3fa146102d6578063313ce567146103025780633950935114610320576101c4565b806306fdde03146101c9578063095ea7b31461024657806318160ddd14610286575b600080fd5b6101d1610591565b6040805160208082528351818301528351919283929083019185019080838360005b8381101561020b5781810151838201526020016101f3565b50505050905090810190601f1680156102385780820380516001836020036101000a031916815260200191505b509250505060405180910390f35b6102726004803603604081101561025c57600080fd5b506001600160a01b038135169060200135610627565b604080519115158252519081900360200190f35b61028e61064d565b60408051918252519081900360200190f35b610272600480360360608110156102b657600080fd5b506001600160a01b03813581169160208101359091169060400135610653565b61028e600480360360408110156102ec57600080fd5b50803590602001356001600160a01b0316610679565b61030a6106e6565b6040805160ff9092168252519081900360200190f35b6102726004803603604081101561033657600080fd5b506001600160a01b0381351690602001356106ef565b61035461070c565b005b6102726004803603604081101561036c57600080fd5b506001600160a01b03813516906020013561076c565b6103546004803603602081101561039857600080fd5b5035610793565b610272600480360360208110156103b557600080fd5b50356001600160a01b03166107a0565b6102726107b3565b6103546107bc565b61028e600480360360208110156103eb57600080fd5b50356001600160a01b03166107c7565b6103546107e2565b6103546004803603604081101561041957600080fd5b506001600160a01b03813516906020013561084a565b6103546004803603602081101561044557600080fd5b50356001600160a01b0316610858565b610354610873565b6104656108d7565b604080516001600160a01b039092168252519081900360200190f35b6102726108e6565b6101d16108f7565b610354600480360360208110156104a757600080fd5b50356001600160a01b0316610958565b610354610973565b610272600480360360408110156104d557600080fd5b506001600160a01b03813516906020013561097c565b6102726004803603604081101561050157600080fd5b506001600160a01b038135169060200135610999565b6102726004803603602081101561052d57600080fd5b50356001600160a01b03166109b6565b61028e6004803603604081101561055357600080fd5b506001600160a01b03813581169160200135166109c9565b6103546004803603602081101561058157600080fd5b50356001600160a01b03166109f4565b60078054604080516020601f600260001961010060018816150201909516949094049384018190048102820181019092528281526060939092909183018282801561061d5780601f106105f25761010080835404028352916020019161061d565b820191906000526020600020905b81548152906001019060200180831161060057829003601f168201915b5050505050905090565b60065460009060ff161561063a57600080fd5b6106448383610a0e565b90505b92915050565b60035490565b60065460009060ff161561066657600080fd5b610671848484610a8a565b949350505050565b6000828152600a602052604081205460ff16156106de5760405160200180807f455243313832305f4143434550545f4d414749430000000000000000000000008152506014019050604051602081830303815290604052805190602001209050610647565b506000610647565b60095460ff1690565b60065460009060ff161561070257600080fd5b6106448383610b53565b610715336107a0565b61071e57600080fd5b60065460ff1661072d57600080fd5b6006805460ff191690556040805133815290517f5db9ee0a495bf2e6ff9c91a7834c1ba4fdd244a5e8aa4e537bd38aeae4b073aa9181900360200190a1565b6000610777336109b6565b61078057600080fd5b61078a8383610c01565b50600192915050565b61079d3382610cab565b50565b600061064760058363ffffffff610d5416565b60065460ff1690565b6107c533610d89565b565b6001600160a01b031660009081526001602052604090205490565b6107ea6108e6565b6107f357600080fd5b600080546040516001600160a01b03909116907f8be0079c531659141344cd1fd0a4f28419497f9722a3daafe3b4186f6b6457e0908390a36000805473ffffffffffffffffffffffffffffffffffffffff19169055565b6108548282610dd1565b5050565b610861336107a0565b61086a57600080fd5b61079d81610e93565b61087c336107a0565b61088557600080fd5b60065460ff161561089557600080fd5b6006805460ff191660011790556040805133815290517f62e78cea01bee320cd4e420270b5ea74000d11b0c9f74754ebdbfc544b05a2589181900360200190a1565b6000546001600160a01b031690565b6000546001600160a01b0316331490565b60088054604080516020601f600260001961010060018816150201909516949094049384018190048102820181019092528281526060939092909183018282801561061d5780601f106105f25761010080835404028352916020019161061d565b610961336109b6565b61096a57600080fd5b61079d81610edb565b6107c533610f23565b60065460009060ff161561098f57600080fd5b6106448383610f6b565b60065460009060ff16156109ac57600080fd5b6106448383610fb4565b600061064760048363ffffffff610d5416565b6001600160a01b03918216600090815260026020908152604080832093909416825291909152205490565b6109fc6108e6565b610a0557600080fd5b61079d81610fc1565b60006001600160a01b038316610a2357600080fd5b3360008181526002602090815260408083206001600160a01b03881680855290835292819020869055805186815290519293927f8c5be1e5ebec7d5bd14f71427d1e84f3dd0314c0f7b2291e5b200ac8c7c3b925929181900390910190a350600192915050565b6001600160a01b0383166000908152600260209081526040808320338452909152812054610abe908363ffffffff61103c16565b6001600160a01b0385166000908152600260209081526040808320338452909152902055610aed848484611051565b6001600160a01b0384166000818152600260209081526040808320338085529083529281902054815190815290519293927f8c5be1e5ebec7d5bd14f71427d1e84f3dd0314c0f7b2291e5b200ac8c7c3b925929181900390910190a35060019392505050565b60006001600160a01b038316610b6857600080fd5b3360009081526002602090815260408083206001600160a01b0387168452909152902054610b9c908363ffffffff61111e16565b3360008181526002602090815260408083206001600160a01b0389168085529083529281902085905580519485525191937f8c5be1e5ebec7d5bd14f71427d1e84f3dd0314c0f7b2291e5b200ac8c7c3b925929081900390910190a350600192915050565b6001600160a01b038216610c1457600080fd5b600354610c27908263ffffffff61111e16565b6003556001600160a01b038216600090815260016020526040902054610c53908263ffffffff61111e16565b6001600160a01b03831660008181526001602090815260408083209490945583518581529351929391927fddf252ad1be2c89b69c2b068fc378daa952ba7f163c4a11628f55a4df523b3ef9281900390910190a35050565b6001600160a01b038216610cbe57600080fd5b600354610cd1908263ffffffff61103c16565b6003556001600160a01b038216600090815260016020526040902054610cfd908263ffffffff61103c16565b6001600160a01b0383166000818152600160209081526040808320949094558351858152935191937fddf252ad1be2c89b69c2b068fc378daa952ba7f163c4a11628f55a4df523b3ef929081900390910190a35050565b60006001600160a01b038216610d6957600080fd5b506001600160a01b03166000908152602091909152604090205460ff1690565b610d9a60058263ffffffff61113016565b6040516001600160a01b038216907fcd265ebaf09df2871cc7bd4133404a235ba12eff2041bb89d9c714a2621c7c7e90600090a250565b6001600160a01b0382166000908152600260209081526040808320338452909152902054610e05908263ffffffff61103c16565b6001600160a01b0383166000908152600260209081526040808320338452909152902055610e338282610cab565b6001600160a01b0382166000818152600260209081526040808320338085529083529281902054815190815290519293927f8c5be1e5ebec7d5bd14f71427d1e84f3dd0314c0f7b2291e5b200ac8c7c3b925929181900390910190a35050565b610ea460058263ffffffff61117816565b6040516001600160a01b038216907f6719d08c1888103bea251a4ed56406bd0c3e69723c8a1686e017e7bbe159b6f890600090a250565b610eec60048263ffffffff61117816565b6040516001600160a01b038216907f6ae172837ea30b801fbfcdd4108aa1d5bf8ff775444fd70256b44e6bf3dfc3f690600090a250565b610f3460048263ffffffff61113016565b6040516001600160a01b038216907fe94479a9f7e1952cc78f2d6baab678adc1b772d936c6583def489e524cb6669290600090a250565b60006001600160a01b038316610f8057600080fd5b3360009081526002602090815260408083206001600160a01b0387168452909152902054610b9c908363ffffffff61103c16565b600061078a338484611051565b6001600160a01b038116610fd457600080fd5b600080546040516001600160a01b03808516939216917f8be0079c531659141344cd1fd0a4f28419497f9722a3daafe3b4186f6b6457e091a36000805473ffffffffffffffffffffffffffffffffffffffff19166001600160a01b0392909216919091179055565b60008282111561104b57600080fd5b50900390565b6001600160a01b03821661106457600080fd5b6001600160a01b03831660009081526001602052604090205461108d908263ffffffff61103c16565b6001600160a01b0380851660009081526001602052604080822093909355908416815220546110c2908263ffffffff61111e16565b6001600160a01b0380841660008181526001602090815260409182902094909455805185815290519193928716927fddf252ad1be2c89b69c2b068fc378daa952ba7f163c4a11628f55a4df523b3ef92918290030190a3505050565b60008282018381101561064457600080fd5b6001600160a01b03811661114357600080fd5b61114d8282610d54565b61115657600080fd5b6001600160a01b0316600090815260209190915260409020805460ff19169055565b6001600160a01b03811661118b57600080fd5b6111958282610d54565b1561119f57600080fd5b6001600160a01b0316600090815260209190915260409020805460ff19166001179055565b6001600a6000836040516020018082805190602001908083835b602083106111fd5780518252601f1990920191602091820191016111de565b6001836020036101000a03801982511681845116808217855250505050505090500191505060405160208183030381529060405280519060200120815260200190815260200160002060006101000a81548160ff0219169083151502179055505056fea265627a7a723158203540fe325f981aa50620a256c81934fe11eb72c907137e426d769756a4ad063e64736f6c63430005100032",
  "linkReferences": {},
  "deployedLinkReferences": {}
}